:020000040038C2
:07FF000018FB785C1E0216DD
:0FFF60008B0B48DA5A220000167AFA682BAB4056
:20FFE0005C1E021610FF20FF30FF40FF000060FF5C1E021610FF20FF30FF40FF00FF60FFE8
:020000040000FA
:200500000000000000000000000000000000000000000000000000000000000000000000DB
:200520000000000000000000000000000000000000000000000000000008000000000000B3
:2005400000000000000000000000000200040000060000000000000000000000000000008F
:2005600000000000000000000000000000000000000000000000000000000000000000007B
:200580000000313233343536373839302D3D080951574552545955494F505B5D0D00415351
:2005A000444647484A4B4C3B2760005C5A584356424E4D2C2E2F002A002000000000000028
:2005C00000000000000000000000000000000000000000000000000000000000000000001B
:2005E0000000000000000000000000000000000000000000000000000000000000000000FB
:020000040016E4
:200000004808C220A900005B2868A90048ABE220AD4001F03CAD40012901C901D0068D40DD
:2000200001200001AD40012904C904D0068D4001208101AD40012908C908D0068D400120BC
:200040008501AD40012980C980D0068D400120A301E220AD4101F00FAD41012901C901D02F
:20006000068D4101206F00E220AD4201F0006BE210AF0318AFC97FB07AAAAF1C0216C90597
:20008000F016BD0005AAE000F069AF1C0216C903F061C210FCF60060E00EF010E01CF011A6
:2000A000BD8005C900F04C20E401804720F9018042A592C906F00E186590AAA9209FF41723
:2000C00016E69280ECC21020070DA9018F1C0216A018AA8417A00700A21E00A9008717E622
:2000E00017CAD0F9C220A517186932008517E22088D0E5C210608B03E0040A0534055E05DB
:20010000AF0718AF8901F006AF0318AF80F2209D04AF1C0216D00520AC028064C901D02E04
:20012000A5811A8581C93CD057A9008581F8A58038E9018580D820CA09A580C900D041A9E7
:20014000048F1C021622A8100020120C8032C903D005203A088029C904D00520C50B802030
:20016000C905D01CA028AA8417A9AF8519A923851EC220A9F4171865908570E22020CF08C2
:200180006020D50D60A57AF0198901F003202814A57A8902F003207614A57A8904F0032096
:2001A000C41460E220AF40010029808F400100AF0318AFA20000E210A6E09F0607AFE8E0E6
:2001C00003D01CAF0207AF85E1AF0307AF85E2AF0407AF85E3AF0507AF85E4E220A20086C6
:2001E000E0C2106048A592C906F00CE692186590AA689FF41716606860A592F00DC6923A5E
:20020000186590AAA95F9FF417166000000000000500000000000000000000000401E220F3
:20022000C210A9008D870F8F0007AF8F1000AF857A8592C220A905008F84E8AF8F10021686
:20024000E220205B0A20A40CA9048F1C0216208D0C206513A91F8F0000AFA9018F86E8AF2A
:2002600022A81000A9F28F4C0100A9FE8F4D0100AF1C0216C904D00620120C58801678AFD0
:2002800084E8AF29078F0F0216C907F0F2206103200E0758EAEAEAAF1C0216C902D00BA9AA
:2002A000008F1C0216203B0B80B680E8AF0B02161A8F0B0216CF160216D00FAF1202161A0A
:2002C0008F120216A9008F0B021620F605AF150216F07BAF120216D0034CEB082012152056
:2002E000A305C220F818AF1802166925008F180216900C18AF1A02166901008F1A0216D8A0
:20030000E220208C03A9058F100216A9008F1202168F1502168F1402168F0B0216206103B8
:20032000200E07AF1702161A8F170216C90AD01EA9008F170216F818AF1D021669018F1DA0
:200340000216D8AF16021638E9028F16021620500620A606209707206A0720F40720180804
:2003600060AF0F02168F0E0216AF84E8AF29078F0F0216C907F0F2608717C220A517186913
:200380000020851FE220A51E871F606064736474A000006472C220AF1202163A8D0001A91D
:2003A0000E008D0201AD0401AAE220BFCE1616F00FE672E8C8C00E00D0F1A572C90EF016FE
:2003C000E673AF1202161A8F120216C915F006A573C904D0BB60E674A9038F1C0216C220C9
:2003E000AF1202163A8D0001A90E008D0201AD0401AAE220E8E8A00000A9099FCE1616E814
:20040000C8A90A9FCE1616E8C8C00900D0F5A90B9FCE161680AAA900EBAF140216D005BF10
:200420005E161660C901D02BDA8A29F085738A2903AA38A90CE00000F005E904CA80F685C4
:2004400072A3014A4A29031865726573AABF5E1616FA60C902D01ADA8A29F085738A290FC6
:20046000857238A90FE572186573AABF5E1616FA60DA8A29F085738A290C4A4A8572A3019E
:200480002903AAA903E00000F006186904CA80F538E572186573AABF5E1616FA60A5831A32
:2004A0008583C906D0396483AF00E8AF8902D007647D20340580288904D007647D20E004A2
:2004C000801D8908D007647D200A0580128910D00CA57DD00AA901857D205E0560647D6034
:2004E000AF1C0216C901F021AF1002163A8F10021620F605AF150216F00FAF1002161A8F00
:20050000100216A9008F15021660AF1C0216C901F021AF1002161A8F10021620F605AF15A9
:200520000216F00FAF1002163A8F100216A9008F15021660AF1C0216C901F021AF12021680
:200540001A8F12021620F605AF150216F00FAF1202163A8F120216A9008F15021660AF1C76
:200560000216C901F004C904D007A9028F1C021660AF1402161AC904D002A9008F1402163B
:2005800020F605AF150216F016A9008F150216AF140216F0033A8002A9038F140216602088
:2005A0003C1560AF0E02160A0A0A0AAAC220AF1202163A8D0001A90E008D0201AD0401184F
:2005C0006F100216A8A90000E220201604C900F00EDABB18AF0E021669029FCE1616FAE8C8
:2005E000C88A2903D0E4C2209818690A00A8E2208A290FD0D560A900EBAF0E02160A0A0ACC
:200600000AAAC220AF1202168D0001A90E008D0201AD0401186F100216A8A90000E22020C2
:200620001604C900F00BDABBBFCE1616FAC900D018E8C88A2903D0E7C2209818690A00A819
:20064000E2208A290FD0D88006A9018F15021660A29C128617A9B08519A20000A9008F0D17
:200660000216A9008F0C0216BFCE1616C923D004A90180008717E8E617A9008717E617AFED
:200680000C02161A8F0C0216C90ED0DCC220A517186964008517E220AF0D02161A8F0D0239
:2006A00016C915D0BD60A9B08519C220A99C12186F1002166F1002168517A980008D000190
:2006C000AF1202168D0201AD04011865178517E220A900EBAF0E02160A0A0A0AAA20160458
:2006E000C900F009AF0E02161869028717E8E617A9008717E6178A2903D0E2C220A51718FB
:2007000069780085178A290F00E220D0D060A038A58417A9AF8519A920851EA090158470E5
:2007200020CF08A2C0158617A9B08519A900EBAF0F02160A0A0A0AAABF5E1616C900F00772
:20074000AF0F02161869028717E8E617A9008717E6178A2903D0E1C220A5171869780085F6
:20076000178A290F00E220D0CF60A0C8A18417A9AF8519A920851EA07015847020CF08E6A3
:2007800017AF1A021620E509AF19021620E509AF18021620E50960A093A18417A9AF8519B3
:2007A000A920851EA00616847020CF08A0E3A18417A0F4178470A2000020CF08E617E22030
:2007C000BFFD171620E509BFFC171620E509BFFB171620E509C2208A18690A00AA1869F421
:2007E000178570A517186943008517BFFB1716E220D0C660A068A28417A9AF8519A9208569
:200800001EA07715847020CF0818A51769058517AF1D021620E50960A048A48417A9AF856F
:2008200019A920851EA08715847020CF08E617A57920E509A57820E50960AF0B02161A8FDD
:200840000B0216C901D02AA0A8A38417A9AF8519A920851EA07E15847020CF08E617A67494
:20086000BF61151620E509A90020E509202715805DC932D059A0A8A38417A900A0000097A5
:2008800017C8C01000D0F8A674BF611516EBA900C220F8186F1802168F180216900C18AF35
:2008A0001A02166901008F1A0216A5741865788578E220900BAF1A02161869018F1A02160F
:2008C000D8200D0AA9008F0B02168F1C021660DA8BA91648ABB270F00F207803A617E8868D
:2008E00017A670E8867080EDABFA60204F0DA57EC90AF004A9058002A9018F1C0216A900CF
:200900008581A9308580A9008F0002AF8F0C02AFA918858A8586C220A9B8B88584E22020BD
:20092000FD1222A81000A03FA88417A9AF8519A923851EA06615847020CF08A08DA88417D1
:20094000A920851EA07015847020CF08E617AF1A021620E509AF19021620E509AF18021662
:2009600020E509AF1C0216C905D02BA058AB8417A02216847020CF08A0A8AB8417A03A163E
:20098000847020CF08A018AA8417A923851EA01116847020CF0820CA09A9008F120216A257
:2009A0000200A00000A9009FCE1616E8C8C00A00D0F5E8E8E8E8AF1202161A8F120216C9FF
:2009C00014D0DFA9008F12021660A02DA98417A9AF8519A920851EA09C15847020CF08A53E
:2009E0008020E50960DA48EBA900EB29F04A4A4A4AAABF511516207803E617A900EB682985
:200A00000FAABF511516207803E617FA608BC220A574290F00F040A90A018F511616AAE8B0
:200A2000E8BFCE1616C9090AD023A9CE16186F511616AA690E00A8AF5116163A441616AF67
:200A4000511616AAA5743A8574D0D4800AAF51161638E90E0080C3E220AB608BA9808F0007
:200A600000AFA9008F0302AF8F0F02AF8F8202AF8F0001AFA9018F0B01AFA9088F8302AF23
:200A80008F8702AFC220A900008F0901AF8F0802AF8F0A02AF8F1402AF8F1602AF8F80026F
:200AA000AFA900108F0102AFA900188F0D02AFA940008F0402AF8F1002AFA920008F0602A2
:200AC000AF8F1202AFA90010A27618A0000054B016A90004A2722CA0002054AF16A90004FF
:200AE000A27628A0002454AF16A9FFFFA20000A0000054B11AA9FFFFA20000A0000054B2E2
:200B00001BA9FFFFA20000A0000054B31CA9FFFFA20000A0000054B41DA9FFAFA20000A007
:200B2000000054B51EE220ABA9008F0C02AFA9018F0002AFA9038F0801AF60A9288F160237
:200B400016A9008F1000AF8F1202168F1502168F0B02168F1802168F1902168F1A0216859C
:200B60007885798F0500AF8F0600AF8F0700AFA9018F1D0216A9508511A9FF8F4801008F27
:200B80004901008F4A01008F4B0100A9FF8F4C01008F4D01008F4E01008F4F0100208D0C7F
:200BA000A9018F0002AFA9008F0C02AFA917858A8586C220A926BF8584E22020FD12A91F0A
:200BC0008F0000AF60AF0B02161A8F0B0216C914D03FA9008F0B0216A20000A5821A8582A8
:200BE000A20000A9B08519A000188417A20000A00000BF723016F00D1AC909D002A9029F4B
:200C00007230169717E8C8A9009717C8E0C005D0E160A9008F0002AFA916858A8586C22045
:200C2000A970398584E22020FD12A08AAD8417A9AF8519A970851EA0A815847020CF08A01C
:200C400024AE8417A970851EA0BF15847020CF08A0C4AE8417A970851EA0E215847020CF29
:200C600008A9008582A9B08519A000188417A20000A00000BF7230169717E8C8A900971704
:200C8000C8E00008D0EEA9018F0C02AF60A200108617A9B08519A900A000009717C8C000CB
:200CA00010D0F860C220A958188D4003A953168F5A1816A9F4178F661816E220A9028F599C
:200CC0001816A9168D4203A9168F5C1816A9168F681816A9648F6A1816A9008F6C18162271
:200CE000F01000B021AD2E03C904F01A22F410009014C220AF6218168F5E1816AF64181627
:200D00008F601816E22060AD2E03D042C220A958188D4003A953168F5A1816A964008F6A6A
:200D20001816A900008F6C1816A9F4178F661816A916008F681816E220A9028F591816A98C
:200D4000168D4203A9168F5C181622FC100060A900EBA900857E85928590A20000BFFD1764
:200D600016CF1A02169029D016BFFC1716CF190216901DD00ABFFB1716CF1802169011E6E1
:200D80007E8A18690A8590AAA57EC90AD0CF8044A25A00BFF317169FFD1716CAE490D0F303
:200DA000A900A00600EBA590AAA95F9FF41716E888D0F8A9009FF41716E8AF1802169FF457
:200DC0001716E8AF1902169FF41716E8AF1A02169FF4171660A68CE00000F004CA868C6033
:200DE000A900EBA788857FC220E688D002E68AE22029F04A4A4AAA7CFB0D601B0E1B0E1BA6
:200E00000E1E0E1E0E80107712C912D712FA12CF0E2B0E3E0E3E0E570EB00E4CD50DC220A2
:200E2000E688D002E68AE2204CD50DC220E688D002E68AE688D002E68AE2204CD50DC2207E
:200E4000E688D002E68AE688D002E68AE688D002E68AE2204CD50DA57FC9E0D053C220A7D9
:200E6000888D2001C220E688D002E68AE220C220E688D002E68AE220C220A7888D2201C291
:200E800020E688D002E68AE220C220E688D002E68AE220C220AD00808D2401AD02808D2649
:200EA00001AD2801858AAD2A01858CE2204CFA0DC220E688D002E68AE688D002E68AE6885E
:200EC000D002E68AE688D002E68AE2204CD50DA57FC9A0F0034C2B0EA788C220E688D0029A
:200EE000E68AE220C900D04CA590C9089019A9878F00F1AFA93F8F00F1AFC220E688D00254
:200F0000E68AE2204CD50DEBA788C220E688D002E68AE220C2204AE22048290F09808F00BD
:200F2000F1AF68C2204A4A4A4AE220293F8F00F1AF4CD50DC901D013A788C220E688D002DA
:200F4000E68AE220290F85904CD50DC902D04CA592C9089019A9A78F00F1AFA93F8F00F125
:200F6000AFC220E688D002E68AE2204CD50DEBA788C220E688D002E68AE220C2204AE22024
:200F800048290F09A08F00F1AF68C2204A4A4A4AE220293F8F00F1AF4CD50DC903D013A76A
:200FA00088C220E688D002E68AE220290F85924CD50DC904D04CA594C9089019A9C78F00FD
:200FC000F1AFA93F8F00F1AFC220E688D002E68AE2204CD50DEBA788C220E688D002E68AEC
:200FE000E220C2204AE22048290F09C08F00F1AF68C2204A4A4A4AE220293F8F00F1AF4CF2
:20100000D50DC905D013A788C220E688D002E68AE220290F85944CD50DC908D01AA90F3850
:20102000E788C220E688D002E68AE220290F09908F00F1AF4CD50DC909D01AA90F38E78864
:20104000C220E688D002E68AE220290F09B08F00F1AF4CD50DC90AD01AA90F38E788C220B0
:20106000E688D002E68AE220290F09D08F00F1AF4CD50DC220E688D002E68AE2204CD50D8E
:20108000A57FC950D013A7888F00F1AFC220E688D002E68AE2204CFA0DC951D023A900EB4A
:2010A000A788AAC220E688D002E68AE220A7889F00E6AFC220E688D002E68AE2204CD50D9E
:2010C000C952D023A900EBA788AAC220E688D002E68AE220A7889F00F2AFC220E688D00270
:2010E000E68AE2204CFA0DC953D023A900EBA788AAC220E688D002E68AE220A7889F00F35A
:20110000AFC220E688D002E68AE2204CFA0DC954D023A900EBA788AAC220E688D002E68A2A
:20112000E220A7889F00F0AFC220E688D002E68AE2204CD50DC955D01FA900EBA788AAC242
:2011400020E688D002E68AE220A788C220E688D002E68AE2204CD50DC956D02AA900EBA778
:2011600088C910B0034CCF0EAAC220E688D002E68AE220A7889F00F2AFC220E688D002E67D
:201180008AE2204CD50DC957D023A900EBA788AAC220E688D002E68AE220A7889F00F2AF12
:2011A000C220E688D002E68AE2204CD50DC958D02AA900EBA788C910B0034CCF0EAAC2204E
:2011C000E688D002E68AE220A7889F00F2AFC220E688D002E68AE2204CD50DC959D023A96E
:2011E00000EBA788AAC220E688D002E68AE220A7889F00F3AFC220E688D002E68AE2204C47
:20120000D50DC95AD023A900EBA788AAC220E688D002E68AE220A7889F00E6AFC220E68822
:20122000D002E68AE2204CD50DC95ED023A900EBA788AAC220E688D002E68AE220A7889F53
:2012400000E6AFC220E688D002E68AE2204CD50DC95FD020A900EBA788AAC220E688D00290
:20126000E68AE220A7889F00E7AFC220E688D002E68AE2204CD50DA57FC961D020C220A70F
:2012800088AA868CE220C220E688D002E68AE220C220E688D002E68AE2204CFA0DC962D092
:2012A00008A2DF02868C4CFA0DC963D008A27203868C4CFA0DC966D006201C134CFA0DC94E
:2012C00067D00320A2134CFA0DA900EBA57F290FAAE8868C4CFA0DA78A8F2AF2AFC220A5B3
:2012E0008A1A858A9005A58C1A858CE220A900EBA57F290FAA868C4CD50D4CD50DC220A9B5
:201300000000858CA586858A18A03400B784693400658485889002E68AE22060C220A900D9
:2013200000858C18A01C00B784F023691C008D2001C8C8B7848D2201A5848D2401A5868D39
:201340002601AD28018588AD2A01858A8014A03400B78469340065848588A586858A90029A
:20136000E68AE22060A9408D65018D6D01A9018D66018D6E01A9008D67018D6F01A9008D59
:2013800061018D62018D63018D69018D6A018D6B01A9018D64018D6C01A90B8D60018D68F5
:2013A0000160A788C220E688D002E68AE220A78848C220E688D002E68AE220C220A7888D60
:2013C0002001C220E688D002E68AE220C220E688D002E68AE220C220A7888D2201C220E63B
:2013E00088D002E68AE220C220E688D002E68AE220C220A5888D2401A58A8D2601AD280113
:201400008588AD2A01858AE22068F004C9C0D017C220A57D0A0AAAAD24019D0080AD260185
:201420009D0280E67DE22060A664E00000F004CA866460A760C220E660D002E662E220C9C2
:2014400050D012A7608F00F1AFC220E660D002E662E2208020C962D007A2DF02866480153C
:20146000C963D007A272038664800AC966D006A57A29FE857A60A66AE00000F004CA866A96
:2014800060A766C220E666D002E668E220C950D012A7668F00F1AFC220E666D002E668E228
:2014A000208020C962D007A2DF02866A8015C963D007A27203866A800AC966D006A57A2981
:2014C000FD857A60A67BE00000F004CA867B60A76CC220E66CD002E66EE220C950D012A77F
:2014E0006C8F00F1AFC220E66CD002E66EE2208020C962D007A2DF02867B8015C963D00737
:20150000A27203867B800AC966D006A57A29FB857A60A2B2388660A9168562A200008664DE
:20152000A57A0901857A60A21A398666A9168568A20000866AA57A0902857A60A2B2388669
:201540006CA916856EA20000867BA57A0904857A60303132333435363738394142434445E3
:2015600046000103061047414D45204F5645520053434F52453A004C4556454C3A00424F9C
:201580004E55533A2020004C494E45533A2020004E4558542050494543453A005265737449
:2015A00061727420696E200057656C636F6D6520746F20433235362054657472697300481B
:2015C000617264776172652044657369676E65723A2053746566616E7920416C6C6169722B
:2015E0006500536F66747761726520446576656C6F7065723A2044616E69656C2054726583
:201600006D626C61790048492053434F5245533A00454E5445522055534552204E414D45DD
:201620003A005072657373203C456E7465723E207768656E20646F6E650050726573732006
:201640003C426B73703E20746F2064656C6574650000007465747269732E736372000000D9
:20166000010000000100000001000000010000010100000101000000000000000000000161
:20168000000000010000000101000000000000000100000001000001010000000000000043
:2016A000010000010100000001000000000000000100000101000001000000000000000121
:2016C000000000010100000001000000000023230000000000000000000023232323000035
:2016E0000000000000000000232323230000000000000000000023232323000000000000D2
:201700000000000023232323000000000000000000002323232300000000000000000000B1
:20172000232323230000000000000000000023232323000000000000000000002323232305
:20174000000000000000000000002323232300000000000000000000232323230000000071
:20176000000000000000232323230000000000000000000023232323000000000000000051
:201780000000232323230000000000000000000023232323000000000000000000002323EB
:2017A0002323000000000000000000002323232300000000000000000000232323230000CB
:2017C0000000000000000000232323230000000000000000000023232323000000000000F1
:2017E000000000002323232323232323232323232323232344414E2020200086240020209C
:20180000202020200000000020202020202000000000202020202020000000002020202048
:20182000202000000000202020202020000000002020202020200000000020202020202028
:1818400000000000202020202020000000002020202020200000000010
:20187600000000000000000000000000000000000303030303030303030303030303030322
:201896000052525252525252525252525252520000E6E6E6E6E6E6E6E6E6E6E6E6E6E60022
:2018B60000060606060606060606060606060600008A8A8A8A8A8A8A8A8A8A8A8A8A8A0032
:2018D6000001010101010101010101010101010000BEBEBEBEBEBEBEBEBEBEBEBEBEBE0080
:2018F60000666666666666666666666666666600000000000000000000000000000000003E
:201916000000000000000000000000000000000000000000000000000000000000000000B1
:20193600040404040404040404040404040404040000000000000000000000000000000051
:20195600000000000000000000000000000000000000000000000000000000000000000071
:2019760000000000000000000000000000000000030101010101010101010101010100033E
:2019960052414141414141414141414141414180E6F7F7F7F7F7F7F7F7F7F7F7F7F7F7DF8A
:2019B600060707070707070707070707070707088A4E4E4E4E4E4E4E4E4E4E4E4E4E4E1FB4
:2019D60001020202020202020202020202020204BECECECECECECECECECECECECECECECFFF
:2019F6006646464646464646464646464646462600000009090909090909090909090909FC
:201A16000909090909090909090909090909090909090909090909090909090909000000AB
:201A3600040404040404040404040404040404040000000000000000000000000000000050
:201A5600000000000000000000000000000000000000000000000000000000000000000070
:201A7600000000000000000000000000000000000301E9E9E9E9E9E9E9E9E9E9E9E9040359
:201A960052414280428042804280428042804180E6F7E9F9E9F9E9F9E9F9E9F9E9F9F7DF51
:201AB600060717681768176817681768176807088A4E6E2D6E2D6E2D6E2D6E2D6E2D4E1F13
:201AD60001020103010301030103010301030204BECEDFBFDFBFDFBFDFBFDFBFDFBFCECFF2
:201AF600664617661766176617661766176646260000094B6D6D4B4B6D6D4B4B6D6D4B4B26
:201B16006D6D4B4B6D6D4B4B6D6D4B4B6D6D4B4B6D6D4B4B6D6D4B4B6D6D4B4B6D09000029
:201B360004040404040404040404040404040404000000000000000000000000000000004F
:201B560000000000000000000000000000000000000000000000000000000000000000006F
:201B7600000000000000000000000000000000000301E9E9E9E9E9E9E9E9E9E9E9E9040358
:201B960052418042804280428042804280424180E6F7F9E9F9E9F9E9F9E9F9E9F9E9F7DF50
:201BB600060768176817681768176817681707088A4E2D6E2D6E2D6E2D6E2D6E2D6E4E1F12
:201BD60001020301030103010301030103010204BECEBFDFBFDFBFDFBFDFBFDFBFDFCECFF1
:201BF6006646661766176617661766176617462600094B4B6D6D4B4B6D6D4B4B6D6D4B4BDA
:201C16006D6D4B4B6D6D4B4B6D6D4B4B6D6D4B4B6D6D4B4B6D6D4B4B6D6D4B4B6D6D0900BB
:201C360004040404040404040404040404040404000000000000000000000000000000004E
:201C560000000000000000000000000000000000000000000000000000000000000000006E
:201C7600000000000000000000000000000000000301E9E9E9E9E9E9E9E9E9E9E9E9040357
:201C960052414280428042804280428042804180E6F7E9F9E9F9E9F9E9F9E9F9E9F9F7DF4F
:201CB600060717681768176817681768176807088A4E6E2D6E2D6E2D6E2D6E2D6E2D4E1F11
:201CD60001020103010301030103010301030204BECEDFBFDFBFDFBFDFBFDFBFDFBFCECFF0
:201CF6006646176617661766176617661766462600096D6D4B4B26264B4B26264B4B26263F
:201D16004B4B26264B4B26264B4B26264B4B26264B4B26264B4B26264B4B26264B4B091FC1
:201D360004040404040404040404040404040404000000000000000000000000000000004D
:201D560000000000000000000000000000000000000000000000000000000000000000006D
:201D7600000000000000000000000000000000000301E9E9E9E9E9E9E9E9E9E9E9E9040356
:201D960052418042804280428042804280424180E6F7F9E9F9E9F9E9F9E9F9E9F9E9F7DF4E
:201DB600060768176817681768176817681707088A4E2D6E2D6E2D6E2D6E2D6E2D6E4E1F10
:201DD60001020301030103010301030103010204BECEBFDFBFDFBFDFBFDFBFDFBFDFCECFEF
:201DF6006646661766176617661766176617462600096D6D4B4B26264B4B26264B4B26263E
:201E16004B4B26264B4B26264B4B26264B4B26264B4B26264B4B26264B4B26264B4B091FC0
:201E360004040404040404040404040404040404000000000000000000000000000000004C
:201E560000000000000000000000000000000000000000000000000000000000000000006C
:201E7600000000000000000000000000000000000301E9E9E9E9E9E9E9E9E9E9E9E9040355
:201E960052414280428042804280428042804180E6F7E9F9E9F9E9F9E9F9E9F9E9F9F7DF4D
:201EB600060717681768176817681768176807088A4E6E2D6E2D6E2D6E2D6E2D6E2D4E1F0F
:201ED60001020103010301030103010301030204BECEDFBFDFBFDFBFDFBFDFBFDFBFCECFEE
:201EF6006646176617661766176617661766462600094B4B26264B4B26264B4B26264B4B81
:201F160026264B4B26264B4B26264B4B26264B4B26264B4B26264B4B26264B4B2626091F09
:201F360004040404040404040404040404040404000000000000000000000000000000004B
:201F560000000000000000000000000000000000000000000000000000000000000000006B
:201F7600000000000000000000000000000000000301E9E9E9E9E9E9E9E9E9E9E9E9040354
:201F960052418042804280428042804280424180E6F7F9E9F9E9F9E9F9E9F9E9F9E9F7DF4C
:201FB600060768176817681768176817681707088A4E2D6E2D6E2D6E2D6E2D6E2D6E4E1F0E
:201FD60001020301030103010301030103010204BECEBFDFBFDFBFDFBFDFBFDFBFDFCECFED
:201FF6006646661766176617661766176617462600094B4B26264B4B26264B4B26264B4B80
:2020160026264B4B26264B4B26264B4B26264B4B26264B4B26264B4B26264B4B2626091F08
:2020360004040404040404040404040404040404000000000000000000000000000000004A
:2020560000000000000000000000000000000000000000000000000000000000000000006A
:20207600000000000000000000000000000000000301E9E9E9E9E9E9E9E9E9E9E9E9040353
:2020960052414280428042804280428042804180E6F7E9F9E9F9E9F9E9F9E9F9E9F9F7DF4B
:2020B600060717681768176817681768176807088A4E6E2D6E2D6E2D6E2D6E2D6E2D4E1F0D
:2020D60001020103010301030103010301030204BECEDFBFDFBFDFBFDFBFDFBFDFBFCECFEC
:2020F6006646176617661766176617661766462600096D6D4B4B26264B4B26264B4B26263B
:202116004B4B26264B4B26264B4B26264B4B26264B4B26264B4B26264B4B26264B4B091FBD
:20213600040404040404040404040404040404040000000000000000000000000000000049
:20215600000000000000000000000000000000000000000000000000000000000000000069
:20217600000000000000000000000000000000000301E9E9E9E9E9E9E9E9E9E9E9E9040352
:2021960052418042804280425142514251424180E6F7F9E9F9E9F9E9E7E9E7E9E7E9F7DF0D
:2021B600060768176817681736673667361707088A4E2D6E2D6E2D6E4E6E4E6E4E6E4E1F9F
:2021D60001020301030103010101010101010204BECEBFDFBFDFBFDFBEDFBEDFBEDFCECFF4
:2021F6006646661766176617051705170517462600096D6D4B4B26264B4B26264B4B26265D
:202216004B4B26264B4B26264B4B26264B4B26264B4B26264B4B26264B4B26264B4B091FBC
:20223600040404040404040404040404040404040000000000000000000000000000000048
:20225600000000000000000000000000000000000000000000000000000000000000000068
:20227600000000000000000000000000000000000301E9E9E9E9E9E9E9E9E9E9E9E9040351
:2022960052414280428042514251425142804180E6F7E9F9E9F9E9E7E9E7E9E7E9F9F7DF0C
:2022B600060717681768173667366736676807088A4E6E2D6E2D6E4E6E4E6E4E6E2D4E1F4E
:2022D60001020103010301010101010101030204BECEDFBFDFBFDFBEDFBEDFBEDFBFCECFF3
:2022F6006646176617661705170517051766462600094B4B26264B4B26264B4B26264B4BA0
:2023160026264B4B26264B4B26264B4B26264B4B26264B4B26264B4B26264B4B2626091F05
:20233600040404040404040404040404040404040000000000000000000000000000000047
:20235600000000000000000000000000000000000000000000000000000000000000000067
:20237600000000000000000000000000000000000301E9E9E9E9E9E9E9E9E9E9E9E9040350
:2023960052418042804280425142514251424180E6F7F9E9F9E9F9E9E7E9E7E9E7E9F7DF0B
:2023B600060768176817686736673667361707088A4E2D6E2D6E2D6E4E6E4E6E4E6E4E1F4D
:2023D60001020301030103010101010101010204BECEBFDFBFDFBFDFBEDFBEDFBEDFCECFF2
:2023F6006646661766176617051705170517462600094B4B26264B4B26264B4B26264B4B9F
:2024160026264B4B26264B4B26264B4B26264B4B26264B4B26264B4B26264B4B2626091F04
:20243600040404040404040404040404040404040000000000000000000000000000000046
:20245600000000000000000000000000000000000000000000000000000000000000000066
:20247600000000000000000000000000000000000301E9E9E9E9E9E9E9E9E9E9E9E904034F
:2024960052414280428042514251425142804180E6F7E9F9E9F9E9E7E9E7E9E7E9F9F7DF0A
:2024B600060717681768173667366736676807088A4E6E2D6E2D6E4E6E4E6E4E6E2D4E1F4C
:2024D60001020103010301010101010101030204BECEDFBFDFBFDFBEDFBEDFBEDFBFCECFF1
:2024F6006646176617661705170517051766462600096D6D4B4B6D6D4B4B6D6D4B4B6D6DB0
:202516004B4B6D6D4B4B6D6D4B4B6D6D4B4B6D6D4B4B6D6D4B4B6D6D4B4B6D6D4B4B091FD7
:20253600040404040404040404040404040404040000000000000000000000000000000045
:20255600000000000000000000000000000000000000000000000000000000000000000065
:20257600000000000000000000000000000000000301E9E9E9E9E9E9E9E9E9E9E9E904034E
:2025960052418042804280428042804280424180E6F7F9E9F9E9F9E9F9E9F9E9F9E9F7DF46
:2025B600060768176817681768676817681707088A4E2D6E2D6E2D6E2D6E2D6E2D6E4E1FB8
:2025D60001020301030103010301030103010204BECEBFDFBFDFBFDFBFDFBFDFBFDFCECFE7
:2025F600664666176617661766176617661746260000096D4B4B6D6D4B4B6D6D4B4B6D6DF9
:202616004B4B6D6D4B4B6D6D4B4B6D6D4B4B6D6D4B4B6D6D4B4B6D6D4B4B6D6D4B091F1F02
:20263600040404040404040404040404040404040000000000000000000000000000000044
:20265600000000000000000000000000000000000000000000000000000000000000000064
:2026760000000000000000000000000000000000030004040404040404040404040404030A
:2026960052414141414141414141414141414180E6F7F7F7F7F7F7F7F7F7F7F7F7F7F7DF7D
:2026B600060707070707070707070707070707088A4E4E4E4E4E4E4E4E4E4E4E4E4E4E1FA7
:2026D60001020202020202020202020202020204BECECECECECECECECECECECECECECECFF2
:2026F6006646464646464646464646464646462600000009090909090909090909090909EF
:2027160009090909090909090909090909090909090909090909090909090909091F1F0060
:20273600040404040404040404040404040404040000000000000000000000000000000043
:20275600000000000000000000000000000000000000000000000000000000000000000063
:20277600000000000000000000000000000000000303030303030303030303030303030313
:202796000080808080808080808080808080800000DFDFDFDFDFDFDFDFDFDFDFDFDFDF00F1
:2027B60000080808080808080808080808080800001F1F1F1F1F1F1F1F1F1F1F1F1F1F00E1
:2027D6000004040404040404040404040404040000CFCFCFCFCFCFCFCFCFCFCFCFCFCF0059
:2027F60000262626262626262626262626262600000000001F1F1F1F1F1F1F1F1F1F1F1F3B
:202816001F1F1F1F1F1F1F1F1F1F1F1F1F1F1F1F1F1F1F1F1F1F1F1F1F1F1F1F1F1F000000
:20283600040404040404040404040404040404040000000000000000000000000000000042
:20285600000000000000000000000000000000000000000000000000000000000000000062
:202876001A0A0700090C0900090A10000B0A1700091206001E120300080D1D000A073300E0
:202896000810170015140700081212000B0E230037120B000B0C2B0005111F000B073E0040
:2028B60020131900091C06000C15230014191500321D04001B1B1200161722000D1B1800DB
:2028D6001820080007200E00161A1E00091B1F000A13390008192700051143001F1B1D008E
:2028F600261F110009260700071E24001B1F1D002A1A39002B271A002225240029252700CD
:20291600171464002A27230006320B0017282800372B1900121B570011292D0008186D0001
:2029360037320D002328370017370B0016293C0013244E000A2F33001A341F002C390B00E7
:20295600362B360025215B002C341C000C2162000A352400573219000A2C420022274C000C
:202976000C3E1000082B5500004116002C3734000C2A800023229400182B7B001029940057
:202996001153150022541000305310003D521000104E2B00853A500036338000203878009F
:2029B6004F5807006A550D004C50260017455B002F512F00664C33003F503100303E7000DC
:2029D600174C4A0032465900514C3E00464655002241700024388D0018389100094275004A
:2029F6004330A000424A4D00434E42003E416E0034504200064A6300354D4E00085F3C0029
:202A16000B6626003737B200213FAD002345A10068439500634F76000942BC00344AA20044
:202A360068741200327917004875220014646700524F9E0081702A000953B0001A5B9600A1
:202A5600327149004B6F4B003C5A94002F54B0006670480015658300595D8B004C5D90007D
:202A76006564750060686A00446B68004F657900606C6100866C5700526C6600726C5E00B6
:202A960039677F00386D6D00AD773000395ECF005F61CA00439336004169BE00C2893800B4
:202AB600BC8940009F9333008C9B23002F72C900679743001470D900CC7D840023869B00B3
:202AD60087925D004B8A88006C7FA5004B859B006E78BE006C8B820085819E006D879200CB
:202AF6007D8C7E00A0868900C89749007E888E00BE974D00A1906C005080B6008F8E7900F3
:202B16008D898B0044977300B59757003183BC000E85C1008E7EBC0072997200D4A6580032
:202B3600CDA65A00D9998D00C7A76600C8B35A00ADA79100C0A1A10017A5C300DBB55E00B6
:202B5600BCAA8A0043A5BD008B9EC200A8B17E0068A6B400DDB469008BAAA100D6B56F007C
:202B7600D3B37A00A5A2BE009EAD9E00E4A5A6008EA8B500CFB285009FA9B000CCB08E002F
:202B9600ADAAAB00A9B09F00CFB781002CA7E600BBB7A100E5C0790058ABE800DCC4750034
:202BB600E8B99900DFC28A00DCC094007AB0E300D4C09900DCBE9F00ECC98400D2C2A20088
:202BD600CCD47800E8D47200D7CD9000B6D38900CACC9F00C5C5B700F2CF8C00EBCC980041
:202BF600C9C0C900C0C5BE00EDD19000D3C9B300E7CBA800E7CE9F00E2CDA700EAC8B70020
:202C1600BCCEB200BDC8C800E0D0B000AAC8DF0069CCE600AFCFCD008ECDE10035D2EB00D0
:202C3600E1E28A00EBD4B500EFD8AB00E0D9B700DECFD900F2D3C700F7E29700E9D8BC00DC
:202C5600D8D7CB00D2D7CE00E2D9C500ECF0B900ECE7DA00DBE6E600E3E7E3000000000057
:202C7600CCCCCC00999999006666660033333300FFFFFF0000CCFF000099FF000066FF007F
:202C96000033FF0000000000333333006666660099999900CCCCCC00FFFFFF0000CC990090
:202CB600000000000000000000000000000000000099CC0033CCFF0066CCFF006699FF006C
:202CD6003366FF000033CC00000000000000000000000000000000003300CC0000FFCC007D
:202CF60033FFCC0000333300006666000099990000CCCC0000FFFF003399CC003366CC00C9
:202D16000000330000006600000099000000CC000000FF006633FF003300FF0000FF99003E
:202D360066FFCC0033CC9900336666003399990033CCCC0033FFFF00006699000033990089
:202D560033336600333399003333CC003333FF006633CC009966FF006600FF0000FF6600CE
:202D760066FF990033CC6600009966006699990066CCCC0066FFFF00336699000033660016
:202D9600666699006666CC006666FF00330099009933CC00CC66FF009900FF0000FF3300F6
:202DB60033FF66000099330000CC660033FF990099CCCC0099FFFF006699CC000066CC00D7
:202DD6009999CC009999FF009933FF006600CC0066009900CC33FF00CC00FF0000CC00001D
:202DF60000CC3300006633003399660066CC990099FFCC00CCFFFF0099CCFF003399FF00CB
:202E1600CCCCFF00CC99FF009966CC0066339900330066009900CC003300330033CC33000E
:202E360066CC660000FF000033FF330066FF660099FF9900CCFFCC000000000000000000ED
:202E560000000000CC99CC00996699009933990099009900663366006600660000660000CB
:202E76003366330000990000339933006699660099CC990000000000000000000000000075
:202E9600FFCCFF00FF99FF00FF66FF00FF33FF00FF00FF00CC66CC00CC33CC00003300002C
:202EB60033CC0000336600006699330099CC6600CCFF9900FFFFCC00FF993300FFCC99000A
:202ED600FFCCCC00FF99CC00CC6699009933660066003300CC009900CC00CC0033FF00001C
:202EF60066FF33003399000066CC000099FF3300FFFF9900CCCC9900CC660000CC99660096
:202F1600FF999900CC999900FF339900CC00660099006600FF33CC00FF00CC0066FF000042
:202F360099FF660066CC330066990000FFFF6600CCCC660099996600663300009966330054
:202F5600FF666600CC6666009966660099003300CC339900FF66CC00FF00990099FF0000CE
:202F7600CCFF660099CC3300FFFF3300CCCC33009999330066663300996600009933000047
:202F9600FF333300CC3333009933330066333300CC336600FF669900FF006600CCFF000026
:202FB600CCFF3300FFFF0000CCCC0000999900006666000033330000CC993300CC66330006
:202FD600FF000000CC000000990000006600000033000000FF336600FF00330099CC0000AF
:202FF60000000000000000000000000000000000CA990000FFCC3300FFCC6600FF9966002B
:20301600FF663300CC33000000000000000000000000000000000000CC003300FFFFFF0007
:20303600CCCCCC0099999900666666003333330000000000FFCC0000FF990000FF660000B8
:20305600FF33000000000000333333006666660099999900CCCCCC00FFFFFF000000000031
:2030760000000000000000000000000000000000000000000000000000000000000000003A
:2030960000000000000000000000000000000000000000000000000000000000000000001A
:2030B6000000000000000000000000000000000000000000000000000000000000000000FA
:2030D6000000000000000000000000000000000000000000000000000000000000000000DA
:2030F6000000000000000000000000000000000000000000000000000000000000000000BA
:20311600000000000000000000000000000000000000000000000000000000000000000099
:2031360000000000000000000004040000000101000005050500000002020000000000005C
:20315600000000000000000000000000000000000000000000000000000000000000000059
:20317600000000000000000004000004000100000100050000000002000000000000000028
:20319600000000000000000000000000000000000000000000000000000000000000000019
:2031B6000000000000000000040000000000000001000505050000020202000000000000DF
:2031D6000000000000000000000000000000000000000000000000000000000000000000D9
:2031F6000000000000000000040000000000010100000000000500020000020000000000AA
:20321600000000000000000000000000000000000000000000000000000000000000000098
:20323600000000000000000004000004000100000000000000050002000002000000000066
:20325600000000000000000000000000000000000000000000000000000000000000000058
:20327600000000000000000000040400000101010100050505000000020200000000000019
:20329600000000000000000000000000000000000000000000000000000000000000000018
:2032B6000000000000000000000000000000000000000000000000000000000000000000F8
:2032D6000000000000000000000000000000000000000000000000000000000000000000D8
:2032F600000000060606060000050500000808080800020000020003030300040000040061
:20331600000000000000000000000000000000000000000000000000000000000000000097
:2033360000000006000000000500000500080000000002020002000003000000040400004E
:20335600000000000000000000000000000000000000000000000000000000000000000057
:203376000000000606060000050000050008080800000200020200000300000004040000F2
:20339600000000000000000000000000000000000000000000000000000000000000000017
:2033B6000000000600000000050000050008000000000200020200000300000004040000CE
:2033D6000000000000000000000000000000000000000000000000000000000000000000D7
:2033F600000000060000000000050500000808080800020000020003030300040000040072
:20341600000000000000000000000000000000000000000000000000000000000000000096
:20343600000000000000000000000000000000000000000000000000000000000000000076
:20345600000000000000000000000000000000000000000000000000000000000000000056
:203476000000000505050500020202020003030303000808080000070707000006060000D5
:20349600000000000000000000000000000000000000000000000000000000000000000016
:2034B6000000000005050000020000000000030300000800000800000700000600000000C7
:2034D6000000000000000000000000000000000000000000000000000000000000000000D6
:2034F60000000000050500000202020000000303000008000008000007000000060600007D
:20351600000000000000000000000000000000000000000000000000000000000000000095
:2035360000000000050500000200000000000303000008080800000007000000000006003E
:20355600000000000000000000000000000000000000000000000000000000000000000055
:20357600000000000505000002000000000003030000080000080000070000060000060000
:20359600000000000000000000000000000000000000000000000000000000000000000015
:2035B6000000000005050000020202020000030300000800000800070707000006060000AC
:2035D6000000000000000000000000000000000000000000000000000000000000000000D5
:2035F6000000000000000000000000000000000000000000000000000000000000000000B5
:20361600000000000000000000000000000000000000000000000000000000000000000094
:2036360000000000000000000C0C0C0C0C0C0C0C0C0C0C0C0C0C0C0C0C0C0C0C0000000084
:20365600000000000000000000000000000000000000000000000000000000000000000054
:2036760000000000000000000C0C0C0C0C0C0C0C0C0C0C0C0C0C0C0C0C0C0C0C0000000044
:20369600000000000000000000000000000000000000000000000000000000000000000014
:2036B60000000000000000000C0C0C0C0C0C0C0C0C0C0C0C0C0C0C0C0C0C0C0C0000000004
:2036D6000000000000000000000000000000000000000000000000000000000000000000D4
:2036F60000000000000000000C0C0C0C0C0C0C0C0C0C0C0C0C0C0C0C0C0C0C0C00000000C4
:20371600000000000000000000000000000000000000000000000000000000000000000093
:20373600000000000000000000000000000000000000000000000000000000000000000073
:20375600000000000000000000000000000000000000000000000000000000000000000053
:20377600000000000000000000000000000000000000000000000000000000000000000033
:20379600000000000000000000000000000000000000000000000000000000000000000013
:2037B6000000000000000000000000000000000000000000000000000000000000000000F3
:2037D6000000000000000000000000000000000000000000000000000000000000000000D3
:2037F6000000000000000000000000000000000000000000000000000000000000000000B3
:20381600000000000000000000000000000000000000000000000000000000000000000092
:20383600000000000000000000000000000000000000000000000000000000000000000072
:203856000000000000000000000000000000000000000000000000000000000056676D2008
:203876006300000051010000999E360000000000000000005A48000000000000000000006E
:20389600000000000600100500000000000000000C000000000000000000000050E550F076
:2038B60063636350F263636350F463636350F663636350F863636350FA63636350FC63638C
:2038D6006350FF6656676D209100000051010000999E36000000000000000000A5840000F7
:2038F6000000000000000000000000000600100500000000000000000C000000000000008B
:20391600000000005088500F509063636363509D636363635085500C509063636363509DEB
:20393600636363635085500A509063636363509D63636363508C5007509063636363509D45
:2039560063636363508C5009509063636363509462509762509C62509F6656676D20B28571
:20397600010051010000000000000000000066840100A5D7430073000000A5D74300E80317
:2039960000000000000000000000000000004C0000000000000000000000000000000000C5
:2039B60000000000000000000000000000000000000000000000647ADA0000000000000039
:2039D60000000000000000000000000000000000000000000000000000005F05015F040009
:2039F6005E01205E08005EBD205EC0305E20015E40805E60925E808A5EC0385EE0005E23D9
:203A1600E55E433F5E63C15E839E5EE3005EA0575EB0015E430B5EA0985EB02D5EC1305EFB
:203A360021015E41805E61925E818A5EC1385EE1005E24E55E443F5E64C15E849E5EE40052
:203A56005EA1575EB1015E440B5EA1225EB12A5EC2105E22015E42805E62925E828A5EC236
:203A7600185EE2005E25E55E453F5E65C15E859E5EE5005EA2685EB2015E450B5EA2945E2D
:203A9600B22D5EC3205E28015E48805E68925E888A5EC3285EE8005E2BE55E4B3F5E6BC10C
:203AB6005E8B9E5EEB005EA3685EB3015E4B0B5EA31C5EB32A5EC4305E29015E49805E69D1
:203AD600925E898A5EC4385EE9005E2CE55E4C3F5E6CC15E8C9E5EEC005EA4575EB4015EAD
:203AF6004C145EC5305E2A205E4A0B5E6AF45E8AE15EC5345EEA015E2D205E4D3F5E6DF32A
:203B16005E8D545EED005EA5575EB5015E4D055EA5225EB52A5EC6305E30005E50075E7020
:203B3600D85E90FF5EC6385EF0005E33005E533F5E73F55E93F05EF3005EA6575EB6015EB9
:203B560053055EB6095EBD305EC7305E341E5E543F5E74F55E94D75EF4025E54055EBD38AB
:203B76005EC8305E32045E523F5E72F75E92B55EF2005EC8315E52055EA8665EB8025EA705
:203B9600CB5EB7055EBD3C5EC8115E350E5E553F5E75C95E95045EF5005E550B5EBD3E5EAE
:203BB60031015E513F5E71985E91065EF1005EC7395E510B5FC0205F20015F40805F6092DD
:203BD6005F808A5FC0285FE0005F23E55F433F5F63C15F839E5FE3005FA0575FB0015F434B
:203BF600105FA0985FB02D5FC1105F21015F41805F61925F818A5FC1185FE1005F24E55F00
:203C1600443F5F64C15F849E5FE4005FA1575FB1015F44105FA1225FB12A5FC2305F220179
:203C36005F42805F62925F828A5FC2385FE2005F25E55F453F5F65C15F859E5FE5005FA25D
:203C5600575FB2015F45145FC3305F28015F48805F68925F888A5FC3385FE8005F2BE55FF3
:203C76004B3F5F6BC15F8B9E5FEB005FA3575FB3015F4B145FC4305F29015F49805F6992BF
:203C96005F898A5FC4385FE9005F2CE55F4C3F5F6CC15F8C9E5FEC005FA4575FB4015F4C26
:203CB600145FC5305F2AA05F4A045F6AF55F8AC15FC5325FEA015F2DC05F4D3F5F6DF05F56
:203CD6008D045FED005FA5695FB5015F4D055FA51F5FB52A5FC6305F30015F50805F7092E8
:203CF6005F908A5FC6385FF0005F33E55F533F5F73C15F939E5FF3005FA6575FB6015F5388
:203D1600145FC7305F31015F51805F71925F918A5FC7385FF1005F34E55F543F5F74C15F7B
:203D3600949E5FF4005FA7575FB7015F54145FC8305F32015F52805F72925F928A5FC83856
:203D56005FF2005F35E55F553F5F75C15F959E5FF5005FA8575FB8015F551461D2045EBD85
:203D76002E5EBD3E5EBD365EBD3E5EBD3A5EBD3E5EBD3C61FF045EBD2C5EBD245EBD206171
:203D9600D10E5EB50A5FB50A61D3045EB00D5EB0295EB10A5EB12A5EB20D5EB2295EB30AA6
:203DB6005EB32A5EB52A5EBD305E71F85E91CA5EBD315FB00D5FB0295FB10A5FB12A5FB5A2
:203DD6002A61FF045EBD215EBD2061D2045EB50A5FB50A61FF045EB0095EB10A5EB2095E4B
:203DF600B30A5FB0095FB10A61D10E5EA0665EB02E5EA1985EB12D5EA25F5EB22E5EA394D9
:203E16005EB32D5EA5985EB52D5EBD305EBD385EBD3C5E71985E91065EBD3D5FA0665FB056
:203E36002E5FA1985FB12D5FA5965FB52D61D3045EBD355EBD315EBD3061D1095EBD206198
:203E5600D2095EB50D5FB50D61FF045EB00E5EA0985EB0295EB10D5EA1225EB12A5EB20E4F
:203E76005EA2945EB2295EB30D5EA31C5EB32A5EA5225EB52A5EBD305E71F85E91CA5EBDA1
:203E9600315FB00E5FA0985FB0295FB10D5FA1225FB12A5FA51F5FB52A61FF045EBD215E17
:203EB600BD2061D3045EB50A5FB50A61FF045EB0095EB10A5EB2095EB30A5FB0095FB10AA2
:203ED60061A40E5EA08A5EB02E5EA1B15EB12D5EA2835EB22E5EA3AC5EB32D5EA5B15EB596
:203EF6002D5EBD305EBD385EBD3C5E71985E91065EBD3D5FA08A5FB02E5FA1B15FB12D5FC3
:203F1600A5AE5FB52D61FF045EBD355EBD315EBD3061D2095EBD2061D1095EB50D5FB50DB9
:203F360061FF045EB00E5EA0985EB0295EB10D5EA1225EB12A5EB20E5EA2945EB2295EB3AC
:203F56000D5EA31C5EB32A5EA5225EB52A5EBD305E71F85E91CA5EBD315FB00E5FA0985F5A
:203F7600B0295FB10D5FA1225FB12A5FA51F5FB52A61D3045EBD215EBD2061FF045EB50A48
:203F96005FB50A61FF045EB0095EB10A5EB2095EB30A5FB0095FB10A61A40E5EA0225EB0B2
:203FB6002E5EA16C5EB12D5EA21C5EB22E5EA3685EB32D5EA56C5EB52D5EBD305EBD385E6A
:203FD600BD3C5E71985E91065EBD3D5FA0225FB02E5FA16C5FB12D5FA5695FB52D61FF0405
:203FF6005EBD355EBD315EBD3061D2095EBD2061D2095EB50D5FB50D61FF045EB00E5EA052
:20401600985EB0295EB10D5EA1225EB12A5EB20E5EA2945EB2295EB30D5EA31C5EB32A5E86
:20403600A5225EB52A5EBD305E71F85E91CA5EBD315FB00E5FA0985FB0295FB10D5FA12224
:204056005FB12A5FA51F5FB52A61D2045EBD215EBD2061FF045EB50A5FB50A61D3045EB01C
:20407600095EB10A5EB2095EB30A5FB0095FB10A61D10E5EA0665EB02E5EA1985EB12D5E91
:20409600A25F5EB22E5EA3945EB32D5EA5985EB52D5EBD305EBD385EBD3C5E71985E9106CC
:2040B6005EBD3D5FA0665FB02E5FA1985FB12D5FA5965FB52D61D3045EBD355EBD315EBD51
:2040D6003061FD095EBD2061D2095EB50D5FB50D61D3045EB00E5EA0985EB0295EB10D5EE0
:2040F600A1225EB12A5EB20E5EA2945EB2295EB30D5EA31C5EB32A5EA5225EB52A5EBD30A0
:204116005E71F85E91CA5EBD315FB00E5FA0985FB0295FB10D5FA1225FB12A5FA51F5FB521
:204136002A61FF045EBD215EBD2061D3045EB50A5FB50A61FE045EB0095EB10A5EB2095EE7
:20415600B30A5FB0095FB10A61D10E5EA0E65EB02D5EA18A5EB12A5EA2E15EB22D5EA38397
:204176005EB32A5EA58A5EB52A5EBD305EBD385EBD3C5E71985E91065EBD3D5FA0E65FB087
:204196002D5FA18A5FB12A5FA5865FB52A61D3045EBD355EBD315EBD3061D2095EBD206159
:2041B600D1095EB50A5FB50A61FF045EB00D5EA0985EB0295EB10A5EA1225EB12A5EB20DF8
:2041D6005EA2945EB2295EB30A5EA31C5EB32A5EA5225EB52A5EBD305E71F85E91CA5EBD41
:2041F600315FB00D5FA0985FB0295FB10A5FA1225FB12A5FA51F5FB52A61D3045EBD215EE4
:20421600BD2061FF045EB50A5FB50A61FF045EB0095EB10A5EB2095EB30A5FB0095FB10A12
:2042360061A40E5EA0225EB02E5EA16C5EB12D5EA21C5EB22E5EA3685EB32D5EA56C5EB5CF
:204256002D5EBD305EBD385EBD3C5E71985E91065EBD3D5FA0225FB02E5FA16C5FB12D5F0C
:20427600A5695FB52D61FF045EBD355EBD315EBD3061D2095EBD2061D2095EB50D5FB50D9A
:2042960061FE045EB00E5EA0985EB0295EB10D5EA1225EB12A5EB20E5EA2945EB2295EB34A
:2042B6000D5EA31C5EB32A5EA5225EB52A5EBD305E71F85E91CA5EBD315FB00E5FA0985FF7
:2042D600B0295FB10D5FA1225FB12A5FA51F5FB52A61D3045EBD215EBD2061FF045EB50AE5
:2042F6005FB50A61D3045EB0095EB10A5EB2095EB30A5FB0095FB10A61D10E5EA0CB5EB0A5
:204316002D5EA1665EB12A5EA2C65EB22D5EA35F5EB32A5EA5665EB52A5EBD305EBD385E7C
:20433600BD3C5E71985E91065EBD3D5FA0CB5FB02D5FA1665FB12A5FA5625FB52A61FE040D
:204356005EBD355EBD315EBD3061D2095EBD2061D2095EB50A5FB50A61D3045EB00D5EA021
:20437600985EB0295EB10A5EA1225EB12A5EB20D5EA2945EB2295EB30A5EA31C5EB32A5E2A
:20439600A5225EB52A5EBD305E71F85E91CA5EBD315FB00D5FA0985FB0295FB10A5FA122C5
:2043B6005FB12A5FA51F5FB52A61FF045EBD215EBD2061D2045EB50A5FB50A61FF045EB08D
:2043D600095EB10A5EB2095EB30A5FB0095FB10A61D10E5EB02D5EB12A5EB22D5EB32A5EB5
:2043F600B52A5EBD305EBD385EBD3C5E71985E91065EBD3D5FB02D5FB12A5FB52A61D30433
:204416005EBD2D5EBD3D5EBD355EBD3D5EBD395EBD3D5EBD3C61FF045EBD2C5EBD245EBD36
:204436002061D00E5EB50A5FB50A61D3045EB00D5EB0295EB10A5EB12A5EB20D5EB2295E3C
:20445600B30A5EB32A5EB52A5EBD305E71F85E91CA5EBD315FB00D5FB0295FB10A5FB12A52
:204476005FB52A61FF045EBD215EBD2061D3045EB50A5FB50A61FF045EB0095EB10A5EB2F6
:20449600095EB30A5FB0095FB10A61A40E5EA0665EB02E5EA1985EB12D5EA25F5EB22E5E2F
:2044B600A3945EB32D5EA5985EB52D5EBD305EBD385EBD3C5E71985E91065EBD3D5FA06688
:2044D6005FB02E5FA1985FB12D5FA5965FB52D61FF045EBD355EBD315EBD3061D2095EBD37
:2044F6002061D1095EB50D5FB50D61FF045EB00E5EA0985EB0295EB10D5EA1225EB12A5EE9
:20451600B20E5EA2945EB2295EB30D5EA31C5EB32A5EA5225EB52A5EBD305E71F85E91CA55
:204536005EBD315FB00E5FA0985FB0295FB10D5FA1225FB12A5FA51F5FB52A61D3045EBD00
:20455600215EBD2061FF045EB50A5FB50A61FF045EB0095EB10A5EB2095EB30A5FB0095F0B
:20457600B10A61A40E5EA08A5EB02E5EA1B15EB12D5EA2835EB22E5EA3AC5EB32D5EA5B147
:204596005EB52D5EBD305EBD385EBD3C5E71985E91065EBD3D5FA08A5FB02E5FA1B15FB195
:2045B6002D5FA5AE5FB52D61FF045EBD355EBD315EBD3061D2095EBD2061D2095EB50D5F48
:2045D600B50D61FF045EB00E5EA0985EB0295EB10D5EA1225EB12A5EB20E5EA2945EB22955
:2045F6005EB30D5EA31C5EB32A5EA5225EB52A5EBD305E71F85E91CA5EBD315FB00E5FA09A
:20461600985FB0295FB10D5FA1225FB12A5FA51F5FB52A61D2045EBD215EBD2061FF045E6A
:20463600B50A5FB50A61D3045EB0095EB10A5EB2095EB30A5FB0095FB10A61D10E5EA02259
:204656005EB02E5EA16C5EB12D5EA21C5EB22E5EA3685EB32D5EA56C5EB52D5EBD305EBD4B
:20467600385EBD3C5E71985E91065EBD3D5FA0225FB02E5FA16C5FB12D5FA5695FB52D61CB
:20469600D2045EBD355EBD315EBD3061FE095EBD2061D2095EB50D5FB50D61D3045EB00ED3
:2046B6005EA0985EB0295EB10D5EA1225EB12A5EB20E5EA2945EB2295EB30D5EA31C5EB36A
:2046D6002A5EA5225EB52A5EBD305E71F85E91CA5EBD315FB00E5FA0985FB0295FB10D5FB9
:2046F600A1225FB12A5FA51F5FB52A61FF045EBD215EBD2061D2045EB50A5FB50A61FF0495
:204716005EB0095EB10A5EB2095EB30A5FB0095FB10A61D10E5EA0665EB02E5EA1985EB167
:204736002D5EA25F5EB22E5EA3945EB32D5EA5985EB52D5EBD305EBD385EBD3C5E71985E31
:2047560091065EBD3D5FA0665FB02E5FA1985FB12D5FA5965FB52D61D3045EBD355EBD312E
:204776005EBD3061D1095EBD2061D2095EB50D5FB50D61FF045EB00E5EA0985EB0295EB189
:204796000D5EA1225EB12A5EB20E5EA2945EB2295EB30D5EA31C5EB32A5EA5225EB52A5E7B
:2047B600BD305E71F85E91CA5EBD315FB00E5FA0985FB0295FB10D5FA1225FB12A5FA51FA2
:2047D6005FB52A61FF045EBD215EBD2061D3045EB50A5FB50A61FF045EB0095EB10A5EB293
:2047F600095EB30A5FB0095FB10A61A40E5EA0E65EB02D5EA18A5EB12A5EA2E15EB22D5EDD
:20481600A3835EB32A5EA58A5EB52A5EBD305EBD385EBD3C5E71985E91065EBD3D5FA0E6C9
:204836005FB02D5FA18A5FB12A5FA5865FB52A61FF045EBD355EBD315EBD3061D2095EBDF8
:204856002061D1095EB50A5FB50A61FF045EB00D5EA0985EB0295EB10A5EA1225EB12A5E8F
:20487600B20D5EA2945EB2295EB30A5EA31C5EB32A5EA5225EB52A5EBD305E71F85E91CAF6
:204896005EBD315FB00D5FA0985FB0295FB10A5FA1225FB12A5FA51F5FB52A61D3045EBDA1
:2048B600215EBD2061FF045EB50A5FB50A61D3045EB0095EB10A5EB2095EB30A5FB0095FD4
:2048D600B10A61D00E5EA0225EB02E5EA16C5EB12D5EA21C5EB22E5EA3685EB32D5EA56C55
:2048F6005EB52D5EBD305EBD385EBD3C5E71985E91065EBD3D5FA0225FB02E5FA16C5FB1DF
:204916002D5FA5695FB52D61FF045EBD355EBD315EBD3061D2095EBD2061D2095EB50D5F29
:20493600B50D61D3045EB00E5EA0985EB0295EB10D5EA1225EB12A5EB20E5EA2945EB2291D
:204956005EB30D5EA31C5EB32A5EA5225EB52A5EBD305E71F85E91CA5EBD315FB00E5FA036
:20497600985FB0295FB10D5FA1225FB12A5FA51F5FB52A61FE045EBD215EBD2061FF045EDB
:20499600B50A5FB50A61D3045EB0095EB10A5EB2095EB30A5FB0095FB10A61D10E5EA0CB4D
:2049B6005EB02D5EA1665EB12A5EA2C65EB22D5EA35F5EB32A5EA5665EB52A5EBD305EBD5E
:2049D600385EBD3C5E71985E91065EBD3D5FA0CB5FB02D5FA1665FB12A5FA5625FB52A61D3
:2049F600D3045EBD355EBD315EBD3061FD095EBD2061D2095EB50A5FB50A61D3045EB00D77
:204A16005EA0985EB0295EB10A5EA1225EB12A5EB20D5EA2945EB2295EB30A5EA31C5EB30D
:204A36002A5EA5225EB52A5EBD305E71F85E91CA5EBD315FB00D5FA0985FB0295FB10A5F59
:204A5600A1225FB12A5FA51F5FB52A61FF045EBD215EBD2061D3045EB50A5FB50A61FE0431
:204A76005EB0095EB10A5EB2095EB30A5FB0095FB10A61D10E5EB02D5EB12A5EB22D5EB388
:204A96002A5EB52A5EBD305EBD385EBD3C5E71985E91065EBD3D5FB02D5FB12A5FB52A61DB
:204AB600D3045EBD2D5EBD3D5EBD355EBD3D5EBD395EBD3D5EBD3C61FF045EBD2C5EBD24D4
:204AD6005EBD2061A40E5EB50A5FB50A61FF045EB00D5EB0295EB10A5EB12A5EB20D5EB202
:204AF600295EB30A5EB32A5EB52A5EBD305E71F85E91CA5EBD315FB00D5FB0295FB10A5F00
:204B1600B12A5FB52A61D3045EBD215EBD2061FF045EB50A5FB50A61FF045EB0095EB10A84
:204B36005EB2095EB30A5FB0095FB10A61A40E5EA0665EB02E5EA1985EB12D5EA25F5EB204
:204B56002E5EA3945EB32D5EA5985EB52D5EBD305EBD385EBD3C5E71985E91065EBD3D5F5B
:204B7600A0665FB02E5FA1985FB12D5FA5965FB52D61FF045EBD355EBD315EBD3061D209A5
:204B96005EBD2061D2095EB50D5FB50D61FE045EB00E5EA0985EB0295EB10D5EA1225EB1AF
:204BB6002A5EB20E5EA2945EB2295EB30D5EA31C5EB32A5EA5225EB52A5EBD305E71F85E82
:204BD60091CA5EBD315FB00E5FA0985FB0295FB10D5FA1225FB12A5FA51F5FB52A61D3041A
:204BF6005EBD215EBD2061FF045EB50A5FB50A61D3045EB0095EB10A5EB2095EB30A5FB0DE
:204C1600095FB10A61D10E5EA08A5EB02E5EA1B15EB12D5EA2835EB22E5EA3AC5EB32D5E61
:204C3600A5B15EB52D5EBD305EBD385EBD3C5E71985E91065EBD3D5FA08A5FB02E5FA1B1A8
:204C56005FB12D5FA5AE5FB52D61FE045EBD355EBD315EBD3061D2095EBD2061D2095EB5FE
:204C76000D5FB50D61D3045EB00E5EA0985EB0295EB10D5EA1225EB12A5EB20E5EA2945E49
:204C9600B2295EB30D5EA31C5EB32A5EA5225EB52A5EBD305E71F85E91CA5EBD315FB00E17
:204CB6005FA0985FB0295FB10D5FA1225FB12A5FA51F5FB52A61FF045EBD215EBD2061D227
:204CD600045EB50A5FB50A61FF045EB0095EB10A5EB2095EB30A5FB0095FB10A61D10E5EE7
:204CF600A0225EB02E5EA16C5EB12D5EA21C5EB22E5EA3685EB32D5EA56C5EB52D5EBD30FE
:204D16005EBD385EBD3C5E71985E91065EBD3D5FA0225FB02E5FA16C5FB12D5FA5695FB597
:204D36002D61D3045EBD355EBD315EBD3061D1095EBD2061FE095EB50D5FB50D61D3045E5C
:204D5600B00E5EA0985EB0295EB10D5EA1225EB12A5EB20E5EA2945EB2295EB30D5EA31C16
:204D76005EB32A5EA5225EB52A5EBD305E71F85E91CA5EBD315FB00E5FA0985FB0295FB16D
:204D96000D5FA1225FB12A5FA51F5FB52A61FF045EBD215EBD2061D3045EB50A5FB50A6184
:204DB600FF045EB0095EB10A5EB2095EB30A5FB0095FB10A61A40E5EA0665EB02E5EA198FA
:204DD6005EB12D5EA25F5EB22E5EA3945EB32D5EA5985EB52D5EBD305EBD385EBD3C5E7172
:204DF600985E91065EBD3D5FA0665FB02E5FA1985FB12D5FA5965FB52D61FF045EBD355E54
:204E1600BD315EBD3061D2095EBD2061D1095EB50D5FB50D61FF045EB00E5EA0985EB02903
:204E36005EB10D5EA1225EB12A5EB20E5EA2945EB2295EB30D5EA31C5EB32A5EA5225EB54D
:204E56002A5EBD305E71F85E91CA5EBD315FB00E5FA0985FB0295FB10D5FA1225FB12A5F37
:204E7600A51F5FB52A61D3045EBD215EBD2061FF045EB50A5FB50A61FF045EB0095EB10A38
:204E96005EB2095EB30A5FB0095FB10A61A40E5EA0E65EB02D5EA18A5EB12A5EA2E15EB2B1
:204EB6002D5EA3835EB32A5EA58A5EB52A5EBD305EBD385EBD3C5E71985E91065EBD3D5F1E
:204ED600A0E65FB02D5FA18A5FB12A5FA5865FB52A61FF045EBD355EBD315EBD3061D209E7
:204EF6005EBD2061D2095EB50A5FB50A61FF045EB00D5EA0985EB0295EB10A5EA1225EB155
:204F16002A5EB20D5EA2945EB2295EB30A5EA31C5EB32A5EA5225EB52A5EBD305E71F85E22
:204F360091CA5EBD315FB00D5FA0985FB0295FB10A5FA1225FB12A5FA51F5FB52A61D204BB
:204F56005EBD215EBD2061FF045EB50A5FB50A61D3045EB0095EB10A5EB2095EB30A5FB07A
:204F7600095FB10A61D10E5EA0225EB02E5EA16C5EB12D5EA21C5EB22E5EA3685EB32D5E56
:204F9600A56C5EB52D5EBD305EBD385EBD3C5E71985E91065EBD3D5FA0225FB02E5FA16C37
:204FB6005FB12D5FA5695FB52D61D2045EBD355EBD315EBD3061FE095EBD2061D2095EB5E0
:204FD6000D5FB50D61D3045EB00E5EA0985EB0295EB10D5EA1225EB12A5EB20E5EA2945EE6
:204FF600B2295EB30D5EA31C5EB32A5EA5225EB52A5EBD305E71F85E91CA5EBD315FB00EB4
:205016005FA0985FB0295FB10D5FA1225FB12A5FA51F5FB52A61FF045EBD215EBD2061D2C3
:20503600045EB50A5FB50A61FF045EB0095EB10A5EB2095EB30A5FB0095FB10A61D10E5E83
:20505600A0CB5EB02D5EA1665EB12A5EA2C65EB22D5EA35F5EB32A5EA5665EB52A5EBD3067
:205076005EBD385EBD3C5E71985E91065EBD3D5FA0CB5FB02D5FA1665FB12A5FA5625FB59C
:205096002A61D3045EBD355EBD315EBD3061D1095EBD2061D2095EB10A5EB30A5EB50A5F4F
:2050B600B10A5FB50A61FF045EB00D5EA0985EB0295EA1225EB12A5EB20D5EA2945EB22971
:2050D6005EA31C5EB32A5EA5225EB52A5EBD305E71F85E91CA5EBD315FB00D5FA0985FB027
:2050F600295FA1225FB12A5FA51F5FB52A61FF045EBD215EBD2061D3045EB50A5FB50A6105
:20511600FF045EB0095EB10A5EB2095EB30A5FB0095FB10A61A40E5EB02D5EB12A5EB22D1C
:205136005EB32A5EB52A5EBD305EBD385EBD3C5E71985E91065EBD3D5FB02D5FB12A5FB5AE
:205156002A61FF045EBD355EBD3D5EBD395EBD3D5EBD3C61D3045EBD345EBD3061FF045E6C
:20517600BD2061D1095EB50A5FB50A61FF045EB00D5EB0295EB10A5EB12A5EB20D5EB22968
:205196005EB30A5EB32A5EB52A5EBD305E71F85E91CA5EBD315FB00D5FB0295FB10A5FB1D1
:2051B6002A5FB52A61D3045EBD215EBD2061FF045EB50A5FB50A61D3045EB0095EB10A5E5D
:2051D600B2095EB30A5FB0095FB10A61D00E5EA0665EB02E5EA1985EB12D5EA25F5EB22E62
:2051F6005EA3945EB32D5EA5985EB52D5EBD305EBD385EBD3C5E71985E91065EBD3D5FA043
:20521600665FB02E5FA1985FB12D5FA5965FB52D61FF045EBD355EBD315EBD3061D2095E40
:20523600BD2061D2095EB50D5FB50D61D3045EB00E5EA0985EB0295EB10D5EA1225EB12A67
:205256005EB20E5EA2945EB2295EB30D5EA31C5EB32A5EA5225EB52A5EBD305E71F85E9174
:20527600CA5EBD315FB00E5FA0985FB0295FB10D5FA1225FB12A5FA51F5FB52A61FE045E7B
:20529600BD215EBD2061FF045EB50A5FB50A61D3045EB0095EB10A5EB2095EB30A5FB0098C
:2052B6005FB10A61D10E5EA08A5EB02E5EA1B15EB12D5EA2835EB22E5EA3AC5EB32D5EA51F
:2052D600B15EB52D5EBD305EBD385EBD3C5E71985E91065EBD3D5FA08A5FB02E5FA1B15F48
:2052F600B12D5FA5AE5FB52D61D3045EBD355EBD315EBD3061FD095EBD2061D2095EB50DAA
:205316005FB50D61D3045EB00E5EA0985EB0295EB10D5EA1225EB12A5EB20E5EA2945EB2FD
:20533600295EB30D5EA31C5EB32A5EA5225EB52A5EBD305E71F85E91CA5EBD315FB00E5FC3
:20535600A0985FB0295FB10D5FA1225FB12A5FA51F5FB52A61FF045EBD215EBD2061D304DA
:205376005EB50A5FB50A61FE045EB0095EB10A5EB2095EB30A5FB0095FB10A61D10E5EA0A5
:20539600225EB02E5EA16C5EB12D5EA21C5EB22E5EA3685EB32D5EA56C5EB52D5EBD305E99
:2053B600BD385EBD3C5E71985E91065EBD3D5FA0225FB02E5FA16C5FB12D5FA5695FB52D22
:2053D60061D3045EBD355EBD315EBD3061D2095EBD2061D1095EB50D5FB50D61FF045EB033
:2053F6000E5EA0985EB0295EB10D5EA1225EB12A5EB20E5EA2945EB2295EB30D5EA31C5EC2
:20541600B32A5EA5225EB52A5EBD305E71F85E91CA5EBD315FB00E5FA0985FB0295FB10D17
:205436005FA1225FB12A5FA51F5FB52A61D3045EBD215EBD2061FF045EB50A5FB50A61FFEB
:20545600045EB0095EB10A5EB2095EB30A5FB0095FB10A61A40E5EA0225EB02E5EA1985E38
:20547600B12D5EA21C5EB22E5EA3945EB32D5EB52A5EBD305EBD385EBD3C5EC8215EBD3E39
:205496005FA0225FB02E5FA1985FB12D5FB52A61FF045EBD2E5EBD3E5EBD365EBD3E5EBDBA
:2054B6003A5EBD3E5EBD3C61D3045EBD345EBD3061FE095EBD2061D3045EB50A5FB50A61A3
:2054D600FE045EB00E5EB10D5EB20E5EB30D5EBD305EBD315FB00E5FB10D61D3045EBD21FB
:2054F6005EBD2061A3185EBD305EBD3161FE045EBD215EBD206177185EB02E5EB12D5EB256
:205516002E5EB32D5EB52A5EBD305EBD385EBD3C5EC8115EBD3E5FB02E5FB12D5FB52A612E
:20553600FF045EBD365EBD325EBD3061D1095EBD2061D10E5EC6285E30325E50445E70F8EF
:205556005EC62E5E33115E937F5EB60D5EBD305E34325E54495E74F85E94FF5EF4005EBD7E
:20557600385EBD3C5E71985E91065EBD3D61D3045EBD3C61D1095EBD3461D10E5EB20E5EFD
:20559600C2385E62815E827A5EE2025E25C35E857E5EA21F5EB2325E29215E49145E69717B
:2055B6005E89AE5EC43A5E2C315E6CF05E8CFC5EEC015E4C0B5EA4225EB4325EBD245EC6BE
:2055D6003E5EA6435EB60A5EBD345EBD3C5EBD385EBD3C5FC2185FA25B5F450D5FA2295FF3
:2055F600B2325FA3655F4B0D5FA3195FB32E61FF045EA2225EA4255FA22C5FA31C61D30408
:205616005EA2255EA4295FA22F5FA31F61FF045EA2225EA4255EBD345FA22C5FA31C61D259
:20563600045EA21F5EA4225FA2295FA31961FF045EA2225EA4255FA22C5FA31C61D3045E3A
:20565600B2125EA2255EA2695EB2325EB30D5EC3385E68815E887A5EE8025E2BC35E8B7E87
:205676005E4B105EA31C5EB3325EB4125EA4295EA46D5EB4325EBD245EC61E5EA6B15EB6AF
:20569600095EBD345EBD3C5EBD385EBD3C5FB2125FA22F5FA2745FB2325FB30E5FA31F5FF0
:2056B600A3625FB32E61FF045EA2665EA31F5EA4695FA2705FA35F61FF045EA2625EA3227F
:2056D6005EA4665FA26D5FA35B61D3045EA2665EA31F5EA4695EBD345FA2705FA35F61FFD7
:2056F600045EA2695EA31C5EA46D5FA2745FA36261D2045EA2665EA31F5EA4695FA2705FCA
:20571600A35F61FF045EB2125EA2625EA2865EB2325EB3125EA3225EA3665EB3325EB412AD
:205736005EA4665EA48A5EB4325EBD245EC63E5E30005E50075E70D85EC6385E33005E93B3
:20575600F05EA6575EBD345EBD305FB2125FA26D5FA2925FB2325FB30E5FA35B5FA37F5F8A
:20577600B32E61D3045EA28A5EA3625EA48D5EBD205FA2955FA38361FF045EA28D5EA35FD7
:205796005EA4925FA29A5FA38661FF045EA28A5EA3625EA48D5FA2955FA38361D3045EA209
:2057B600865EA3665EA48A5FA2925FA37F61FF045EA28A5EA3625EA48D5EB50A5FA2955F54
:2057D600A3835FB50A61D2045EB00E5EB02E5EB10D5EB12D5EB2125EA28D5EA2255EB23272
:2057F6005EB3125EA35F5EA3835EB3325EB4125EA4925EA4295EB4325EB52A5EBD305EC874
:20581600215EBD325FB00E5FB02E5FB10D5FB12D5FB2125FA29A5FA22F5FB2325FB30E5FA0
:20583600A3865FA31F5FB32E5FB52A61FF045EA2225EA3865EA4255EBD225EBD205FA22CB1
:205856005FA31C61D3045EA21F5EA38A5EA4225FA2295FA31961FF045EA2225EA3865EA4BA
:20587600255FA22C5FA31C61D3045EA2255EA3835EA4295FA22F5FA31F61FF045EA2225E61
:20589600A3865EA4255EB50A5FA22C5FA31C5FB50A61FF045EB00E5EB02A5EB10D5EB12910
:2058B6005EA21F5EB3125EA38A5EA3225EB3325EA4225EB52A5E71F85E91CA5EBD215FB073
:2058D6000E5FB02A5FB10D5FB1295FA2295FA3195FB52A61D2045EA2225EA31F5EA4255E94
:2058F600BD205FA22C5FA31C61FF045EA2255EA31C5EA4295FA22F5FA31F61D3045EB00AF8
:205916005EB1095EA2225EA31F5EA4255FB00A5FB1095FA22C5FA31C61FF045EA21F5EA3EF
:20593600225EA4225FA2295FA31961D3045EA2225EA31F5EA4255EB50A5FA22C5FA31C5F5E
:20595600B50A61FF045EB02A5EB1295EA2255EA31C5EA4295EB52A5EBD305E341E5E540542
:205976005E74F55E94D75EF4025EBD385EBD3C5EBD3D5FB02A5FB1295FA22F5FA31F5FB554
:205996002A61D2045EA2225EA31F5EA4255EBD355EBD315EBD305FA22C5FA31C61FF045E33
:2059B600A21F5EA3225EA4225FA2295FA31961FF045EB00A5EB1095EA2225EA31F5EA42587
:2059D6005EBD205FB00A5FB1095FA22C5FA31C61D3045EA2255EA31C5EA4295FA22F5FA322
:2059F6001F61FF045EA2225EA31F5EA4255EB50A5FA22C5FA31C5FB50A61D3045EB02E5E4D
:205A1600B12D5EB2125EA21F5EA2625EB2325EA3225EB4125EA4225EA4665EB4325EB52A59
:205A36005EBD305EBD315FB02E5FB12D5FB2125FA2295FA26D5FB2325FB30E5FA3195FA304
:205A56005B5FB32E5FB52A61FF045EA2665EA31F5EA4695EBD215EBD205FA2705FA35F6158
:205A7600D2045EA2695EA31C5EA46D5FA2745FA36261FF045EA2665EA31F5EA4695FA270A6
:205A96005FA35F61FF045EA2625EA3225EA4665FA26D5FA35B61D3045EA2665EA31F5EA4B3
:205AB600695EB50A5FA2705FA35F5FB50A61FF045EB00E5EB02A5EB10D5EB1295EA2695E87
:205AD600B3125EA31C5EA35F5EB3325EA46D5EB52A5EBD215FB00E5FB02A5FB10D5FB12997
:205AF6005FA2745FA3625FB52A61D3045EA2665EA3625EA4695EBD205FA2705FA35F61FFA0
:205B1600045EA2625EA3665EA4665FA26D5FA35B61D2045EB00A5EB1095EA2665EA3625EE1
:205B3600A4695FB00A5FB1095FA2705FA35F61FF045EA2695EA35F5EA46D5FA2745FA362C9
:205B560061D3045EA2665EA3625EA4695EB50A5FA2705FA35F5FB50A61FF045EB02A5EB10B
:205B7600295EA2625EA3665EA4665EB52A5EBD305EBD315FB02A5FB1295FA26D5FA35B5F45
:205B9600B52A61FF045EA2665EA3625EA4695EBD215EBD205FA2705FA35F61D3045EA2698E
:205BB6005EA35F5EA46D5FA2745FA36261FF045EB00A5EB1095EA2665EA3625EA4695FB050
:205BD6000A5FB1095FA2705FA35F61D2045EA2625EA3665EA4665FA26D5FA35B61FF045EC5
:205BF600A2665EA3625EA4695EB50A5FA2705FA35F5FB50A61D3045EB02E5EB12D5EB212DA
:205C16005EA2695EA28D5EB2325EA35F5EB4125EA46D5EA4925EB4325EB52A5EBD305EBDC8
:205C3600385EBD3C5EBD3D5FB02E5FB12D5FB2125FA2745FA29A5FB2325FB30E5FA3625F94
:205C5600A3865FB32E5FB52A61FF045EA28A5EA3625EA48D5EBD355EBD315EBD305FA2952A
:205C76005FA38361D3045EA2865EA3665EA48A5FA2925FA37F61FF045EA28A5EA3625EA471
:205C96008D5EBD205FA2955FA38361FF045EA28D5EA35F5EA4925FA29A5FA38661D2045E6E
:205CB600A28A5EA3625EA48D5EB50A5FA2955FA3835FB50A61FF045EB00E5EB02A5EB10D86
:205CD6005EB1295EA2865EB3125EA3665EA38A5EB3325EA48A5EB52A5EBD215FB00E5FB067
:205CF6002A5FB10D5FB1295FA2925FA37F5FB52A61D3045EA28A5EA3865EA48D5EBD205F4A
:205D1600A2955FA38361FF045EA28D5EA3835EA4925FA29A5FA38661D3045EB00A5EB1091D
:205D36005EA28A5EA3865EA48D5FB00A5FB1095FA2955FA38361FF045EA2865EA38A5EA4E9
:205D56008A5FA2925FA37F61FF045EA28A5EA3865EA48D5EB50A5FA2955FA3835FB50A61D4
:205D7600D2045EB02A5EB1295EA2835EA3835EA4865EB52A5EBD305EBD315FB02A5FB129F2
:205D96005FA28D5FA37C5FB52A61FF045EA28A5EA3865EA48D5EBD215EBD205FA2955FA390
:205DB6008361D3045EA2925EA38A5EA4955FA29D5FA38A61FF045EB00A5EB1095EA28A5EB8
:205DD600A3865EA48D5FB00A5FB1095FA2955FA38361D3045EA2835EA3835EA4865FA28D53
:205DF6005FA37C61FF045EA28A5EA3865EA48D5EB50A5FA2955FA3835FB50A61D3045EB06F
:205E16002E5EB12D5EA2925EA37F5EA4955EB52A5EBD305EBD315FB02E5FB12D5FA29D5F0E
:205E3600A38A5FB52A61FE045EA28A5EA3865EA48D5EBD215EBD205FA2955FA38361FF04E8
:205E56005EA2835EA38D5EA4865FA28D5FA37C61D3045EA28A5EA3865EA48D5FA2955FA317
:205E76008361FF045EA2925EA37F5EA4955FA29D5FA38A61D3045EA28A5EA3865EA48D5E1C
:205E9600B50A5FA2955FA3835FB50A61FF045EB00E5EB02A5EB10D5EB1295EA27F5EA38DDB
:205EB6005EA4835EB52A5EBD305EBD385EBD3C5EBD3D5FB00E5FB02A5FB10D5FB1295FA210
:205ED6008A5FA3775FB52A61D3045EA28A5EA3865EA48D5EBD355EBD315EBD305FA2955FB7
:205EF600A38361FE045EA2955EA37F5EA49A5FA2A25FA38D61FF045EB00A5EB1095EA28A02
:205F16005EA3865EA48D5EBD205FB00A5FB1095FA2955FA38361D3045EA27F5EA38D5EA486
:205F3600835FA28A5FA37761FF045EA28A5EA3865EA48D5EB50A5FA2955FA3835FB50A6109
:205F5600D3045EB02A5EB1295EA2955EA37C5EA49A5EB52A5EBD305EBD315FB02A5FB129F0
:205F76005FA2A25FA38D5FB52A61FF045EA28A5EA3865EA48D5EBD215EBD205FA2955FA388
:205F96008361D3045EA27F5EA3925EA4835FA28A5FA37761FE045EB00A5EB1095EA28A5E1A
:205FB600A3865EA48D5FB00A5FB1095FA2955FA38361D3045EA2955EA37C5EA49A5FA2A23D
:205FD6005FA38D61FF045EA28A5EA3865EA48D5EB50A5FA2955FA3835FB50A61FF045EB050
:205FF6002E5EB12D5EA27C5EA3925EA47F5EA5985EB52D5EBD215FB02E5FB12D5FA2865F1A
:20601600A3745FA5965FB52D61D3045EA28A5EA3865EA48D5EBD205FA2955FA38361FF04E6
:206036005EA29A5EA37C5EA49D5FA2A55FA39261D3045EA28A5EA3865EA48D5FA2955FA3EA
:206056008361FE045EA27C5EA3925EA47F5FA2865FA37461D3045EA28A5EA3865EA48D5E81
:20607600B50D5FA2955FA3835FB50D61FF045EB00E5EB02A5EB10D5EB1295EA29A5EA377EE
:206096005EA49D5EA5225EB52A5EBD305EBD315FB00E5FB02A5FB10D5FB1295FA2A55FA3FE
:2060B600925FA51F5FB52A61D3045EA28A5EA3865EA48D5EBD215EBD205FA2955FA383610C
:2060D600FF045EA27C5EA3955EA47F5FA2865FA37461FF045EB00A5EB1095EA28A5EA38672
:2060F6005EA48D5FB00A5FB1095FA2955FA38361D3045EA29A5EA3775EA49D5FA2A55FA31D
:206116009261FE045EA28A5EA3865EA48D5EB50A5FA2955FA3835FB50A61D3045EA0E65E04
:20613600B02D5EA16C5EB12D5EB2125EA28D5EA2695EB2325EA3955EB4125EA4925EA46DAE
:206156005EB4325EA58A5EB52A5EBD305EBD385EBD3C5EBD3D5FA0E65FB02D5FA16C5FB131
:206176002D5FB2125FA29A5FA2745FB2325FB30E5FA3865FA3625FB32E5FA5865FB52A61F1
:20619600FF045EA2665EA3865EA4695EBD355EBD315EBD305FA2705FA35F61D3045EA2623B
:2061B6005EA3775EA4665FA26D5FA35B61FF045EA2665EA3865EA4695EBD205FA2705FA3B4
:2061D6005F61FF045EA2695EA3955EA46D5FA2745FA36261D3045EA2665EA3865EA4695EB1
:2061F600B50A5FA2705FA35F5FB50A61FE045EB00D5EA0225EB02E5EB10D5EA1985EB12D11
:206216005EB2125EA2625EA2865EB2325EB3125EA38A5EA3665EB3325EB4125EA4665EA436
:206236008A5EB4325EA5225EB52A5EBD305E71985E91065EBD315FB00D5FA0225FB02E5F4C
:20625600B10D5FA1985FB12D5FB2125FA26D5FA2925FB2325FB30E5FA35B5FA37F5FB32EF0
:206276005FA51F5FB52A61D3045EA28A5EA3625EA48D5EBD215EBD205FA2955FA38361FF01
:20629600045EA28D5EA35F5EA4925FA29A5FA38661D3045EA28A5EA3625EA48D5FA2955F97
:2062B600A38361FF045EA2865EA3665EA48A5FA2925FA37F61D3045EA28A5EA3625EA48DFD
:2062D6005EB50A5FA2955FA3835FB50A61FF045EB00E5EA0E65EB02D5EB10D5EA16C5EB11D
:2062F6002D5EB2125EA28D5EA2695EB2325EB3125EA35F5EA3835EB3325EB4125EA4925EA1
:20631600A46D5EB4325EA5E65EB5295EBD305FB00E5FA0E65FB02D5FB10D5FA16C5FB12D9E
:206336005FB2125FA29A5FA2745FB2325FB30E5FA3865FA3625FB32E5FA5E35FB52961FE02
:20635600045EA2665EA3865EA4695EBD205FA2705FA35F61D3045EA2625EA38A5EA4665FD2
:20637600A26D5FA35B61FF045EA2665EA3865EA4695FA2705FA35F61D3045EA2695EA383E8
:206396005EA46D5FA2745FA36261FF045EA2665EA3865EA4695EB5095FA2705FA35F5FB5E1
:2063B6000961D3045EB00D5EB0295EB10D5EB1295EA2625EB3125EA38A5EA3665EB3325EC8
:2063D600A4665EB5295E71F85E91CA5EBD215FB00D5FB0295FB10D5FB1295FA26D5FA35B30
:2063F6005FB52961FF045EA2665EA3625EA4695EBD205FA2705FA35F61D2045EA2695EA304
:206416005F5EA46D5FA2745FA36261FF045EB0095EB1095EA2665EA3625EA4695FB0095F81
:20643600B1095FA2705FA35F61FF045EA2625EA3665EA4665FA26D5FA35B61D3045EA266BC
:206456005EA3625EA4695EB5095FA2705FA35F5FB50961FF045EB0295EB1295EA2695EA310
:206476005F5EA46D5EB5295EBD305EBD385EBD3C5EBD3D5FB0295FB1295FA2745FA3625F06
:20649600B52961D3045EA2665EA3625EA4695EBD355EBD315EBD305FA2705FA35F61FF047F
:2064B6005EA2625EA3665EA4665FA26D5FA35B61D2045EB0095EB1095EA2665EA3625EA499
:2064D600695EBD205FB0095FB1095FA2705FA35F61FF045EA2695EA35F5EA46D5FA2745F8F
:2064F600A36261FF045EA2665EA3625EA4695EB5095FA2705FA35F5FB50961D3045EB02D6B
:206516005EB12D5EB2125EA2625EA21F5EB2325EA3665EB4125EA4665EA4225EB4325EB5D6
:20653600295EBD305EBD315FB02D5FB12D5FB2125FA26D5FA2295FB2325FB30E5FA35B5F32
:20655600A3195FB32E5FB52961FF045EA2225EA3625EA4255EBD215EBD205FA22C5FA31C1A
:2065760061D3045EA2255EA35F5EA4295FA22F5FA31F61FF045EA2225EA3625EA4255FA2BB
:206596002C5FA31C61D2045EA21F5EA3665EA4225FA2295FA31961FF045EA2225EA3625E2E
:2065B600A4255EB5095FA22C5FA31C5FB50961D3045EB00D5EB0295EB10D5EB1295EA22575
:2065D6005EB3125EA35F5EA31C5EB3325EA4295EB5295EBD215FB00D5FB0295FB10D5FB19E
:2065F600295FA22F5FA31F5FB52961FF045EA2225EA31F5EA4255EBD205FA22C5FA31C611A
:20661600FF045EA21F5EA3225EA4225FA2295FA31961D3045EB0095EB1095EA2225EA31F0D
:206636005EA4255FB0095FB1095FA22C5FA31C61FF045EA2255EA31C5EA4295FA22F5FA39E
:206656001F61D2045EA2225EA31F5EA4255EB5095FA22C5FA31C5FB50961FF045EB0295EE8
:20667600B1295EA21F5EA3225EA4225EB5295EBD305EBD315FB0295FB1295FA2295FA3193B
:206696005FB52961D3045EA2225EA31F5EA4255EBD215EBD205FA22C5FA31C61FF045EA2E0
:2066B600255EA31C5EA4295FA22F5FA31F61FF045EB0095EB1095EA2225EA31F5EA4255FAB
:2066D600B0095FB1095FA22C5FA31C61D3045EA21F5EA3225EA4225FA2295FA31961FF0440
:2066F6005EA2225EA31F5EA4255EB5095FA22C5FA31C5FB50961D2045EB02D5EB12D5EB2D9
:20671600125EA2255EA2E95EB2315EA31C5EB4125EA4295EA4EC5EB4315EB5295EBD305E80
:20673600BD385EBD3C5EBD3D5FB02D5FB12D5FB2125FA22F5FA2F25FB2315FB30E5FA31F5D
:206756005FA3E35FB32D5FB52961FF045EA2E65EA31F5EA4E95EBD355EBD315EBD305FA285
:20677600EF5FA3E161D3045EA2E35EA3225EA4E65FA2EC5FA3DE61FF045EA2E65EA31F5E76
:20679600A4E95EBD205FA2EF5FA3E161D3045EA2E95EA31C5EA4EC5FA2F25FA3E361FF04E0
:2067B6005EA2E65EA31F5EA4E95EB5095FA2EF5FA3E15FB50961FF045EB00D5EB0295EB101
:2067D6000D5EB1295EA2E35EB3125EA3225EA3E65EB3315EA4E65EB5295EBD215FB00D5F31
