:020000040038C2
:07FF000018FB785C560216A5
:0FFF60008B0B48DA5A220000167AFA682BAB4056
:20FFE0005C56021610FF20FF30FF40FF000060FF5C56021610FF20FF30FF40FF00FF60FF78
:020000040000FA
:200500000000000000000000000000000000000000000000000000000000000000000000DB
:200520000000000000000000000000000000000000000000000000000008000000000000B3
:2005400000000000000000000000000200040000060000000000000000000000000000008F
:2005600000000000000000000000000000000000000000000000000000000000000000007B
:200580000000313233343536373839302D3D080951574552545955494F505B5D0D00415351
:2005A000444647484A4B4C3B2760005C5A584356424E4D2C2E2F002A002000000000000028
:2005C00000000000000000000000000000000000000000000000000000000000000000001B
:2005E0000000000000000000000000000000000000000000000000000000000000000000FB
:020000040016E4
:200000004808C220A900005B2868A90048ABE220AD4001F03CAD40012901C901D0068D40DD
:2000200001200E01AD40012904C904D0068D400120AB01AD40012908C908D0068D40012084
:20004000AF01AD40012980C980D0068D400120CD01E220AD4101F00FAD41012901C901D0DB
:20006000068D4101206F00E220AD4201F0006BE210AF87E8AF2907D006AF6010AF8004AF09
:200080000318AFC97FB07AAAAF540216C905F016BD0005AAE000F069AF540216C903F061AE
:2000A000C210FC040160E00EF010E01CF011BD8005C900F04C201C0280472031028042A51C
:2000C00092C906F00E186590AAA9209FF51B16E69280ECC21020B410A9018F540216A01885
:2000E000AA8417A00700A21E00A9008717E617CAD0F9C220A517186932008517E22088D036
:20010000E5C21060F8064F087908A308CD08AF87E8AF2907D006AF6410AF8004AF0718AFCC
:200120008901F014AF87E8AF2907D006AF6010AF8004AF0318AF80D6200C08AF540216D01E
:20014000052019068064C901D02EA5811A8581C93CD057A9008581F8A58038E9018580D872
:2001600020390DA580C900D041A9048F54021622A8100020880F8032C903D00520A90B803A
:2001800029C904D005203B0F8020C905D01CA028AA8417A9AF8519A923851EC220A9F51BC3
:2001A0001865908570E220203E0C6020811160A57AF0198901F00320D417A57A8902F00312
:2001C000202218A57A8904F00320701860E220AF40010029808F400100AF87E8AF2907D0E6
:2001E00006AF6010AF8004AF0318AFA20000E210A6E09F0607AFE8E003D01CAF0207AF8516
:20020000E1AF0307AF85E2AF0407AF85E3AF0507AF85E4E220A20086E0C2106048A592C906
:2002200006F00CE692186590AA689FF51B16606860A592F00DC6923A186590AAA95F9FF51F
:200240001B166000000000000500000000000000000000000401E220C210A9008D870F8FD4
:200260000007AF8F1000AF857A85928F0500AF8F0600AF8F0700AFA9018F5502168F04005F
:20028000AFA9208F0800AF8F0900AFA9208F0020AEA9108F0040AEA9208F6420AEA9108F2B
:2002A0006440AEA9208FC820AEA9108FC840AEA9208F2C21AEA9108F2C41AEA9208F902141
:2002C000AEA9108F9041AEA9208FF421AEA9108FF441AEA9208F5822AEA9108F5842AEA9AA
:2002E000208FBC22AEA9108FBC42AEA9208F2023AEA9108F2043AEA9208F8423AEA9108F38
:200300008443AEA9208FE823AEA9108FE843AEA9208F4C24AEA9108F4C44AEA9208FB0240E
:20032000AEA9108FB044AEA9208F1425AEA9108F1445AEA9208F7825AEA9108F7845AEA998
:20034000208FDC25AEA9108FDC45AEA9208F4026AEA9108F4046AEA9208FA426AEA9108F28
:20036000A446AEA9208F0827AEA9108F0847AEA9208F6C27AEA9108F6C47AEA9208FD027DA
:20038000AEA9108FD047AEA9208F3428AEA9108F3448AEA9208F9828AEA9108F9848AEA989
:2003A000208FFC28AEA9108FFC48AEA9208F6029AEA9108F6049AEA9208FC429AEA9108F19
:2003C000C449AEA9208F282AAEA9108F284AAEA9208F8C2AAEA9108F8C4AAEA9208FF02AA8
:2003E000AEA9108FF04AAEA9208F542BAEA9108F544BAEA9208FB82BAEA9108FB84BAEA97A
:20040000208F1C2CAEA9108F1C4CAEA9208F802CAEA9108F804CAEA9208FE42CAEA9108F07
:20042000E44CAEA9208F482DAEA9108F484DAEA9208FAC2DAEA9108FAC4DAEA9208F102E74
:20044000AEA9108F104EAEA9208F742EAEA9108F744EAEA9208FD82EAEA9108FD84EAEA969
:20046000208F3C2FAEA9108F3C4FAEA9208FA02FAEA9108FA04FAEA9208F0430AEA9108FF7
:200480000450AEA9208F6830AEA9108F6850AEA9208FCC30AEA9108FCC50AEA9208F303141
:2004A000AEA9108F3051AEA9208F9431AEA9108F9451AEA9208FF831AEA9108FF851AEA95A
:2004C000208F5C32AEA9108F5C52AEA9208FC032AEA9108FC052AEA9208F2433AEA9108FE8
:2004E0002453AEA9208F8833AEA9108F8853AEA9208FEC33AEA9108FEC53AEA9208F50340F
:20050000AEA9108F5054AEA9208FB434AEA9108FB454AEA9208F1835AEA9108F1855AEA948
:20052000208F7C35AEA9108F7C55AEA9208FE035AEA9108FE055AEA9208F4436AEA9108FD8
:200540004456AEA9208FA836AEA9108FA856AEA9208F0C37AEA9108F0C57AEA9208F7037DA
:20056000AEA9108F7057AEA9208FD437AEA9108FD457AEA9208F3838AEA9108F3858AEA939
:20058000208F9C38AEA9108F9C58AEC220A905008F84E8AF8F480216E220A9018F001EAE10
:2005A000A9418FC820AEA9108FC840AE20C50D20FD18201A10A9048F5402162003102011B1
:2005C00017A91F8F0000AFA9018F86E8AF22A81000A9F28F4C0100A9FE8F4D0100AF5402CE
:2005E00016C904D00620880F58801678AF84E8AF29078F470216C907F0F220CE06207D0AF0
:2006000058EAEAEAAF540216C902D00BA9008F54021620B10E80B680E8AF4302161A8F43EC
:200620000216CF4E0216D00FAF4A02161A8F4A0216A9008F430216206509AF4D0216F07BD2
:20064000AF4A0216D0034C5A0C20BE18201209C220F818AF5002166925008F500216900CA9
:2006600018AF5202166901008F520216D8E22020F906A9058F480216A9008F4A02168F4DDA
:2006800002168F4C02168F43021620CE06207D0AAF4F02161A8F4F0216C90AD01EA9008FAB
:2006A0004F0216F818AF55021669018F550216D8AF4E021638E9028F4E021620BF0920151F
:2006C0000A20060B20D90A20630B20870B60AF4702168F460216AF84E8AF29078F47021659
:2006E000C907F0F2608717C220A51718690020851FE220A51E871F6060647364746475A014
:2007000000006472C220AF4A02163A8D0001A90E008D0201AD0401AAE220BFCF1A16F00FE6
:20072000E672E8C8C00E00D0F1A572C90EF016E673AF4A02161A8F4A0216C915F006A573CD
:20074000C904D0BB60E674A9038F540216C220AF4A02163A8D0001A90E008D0201AD04012C
:20076000AAE220E8E8A00000A9099FCF1A16E8C8A90A9FCF1A16E8C8C00900D0F5A90B9F7B
:20078000CF1A1680AAA900EBAF4C0216D005BF5F1A1660C901D02BDA8A29F085738A290316
:2007A000AA38A90CE00000F005E904CA80F68572A3014A4A29031865726573AABF5F1A1686
:2007C000FA60C902D01ADA8A29F085738A290F857238A90FE572186573AABF5F1A16FA6053
:2007E000DA8A29F085738A290C4A4A8572A3012903AAA903E00000F006186904CA80F53842
:20080000E572186573AABF5F1A16FA60A5831A8583C906D0396483AF00E8AF8902D007642A
:200820007D20A30880288904D007647D204F08801D8908D007647D20790880128910D00C7E
:20084000A57DD00AA901857D20CD0860647D60AF540216C901F021AF4802163A8F4802162C
:20086000206509AF4D0216F00FAF4802161A8F480216A9008F4D021660AF540216C901F0ED
:2008800021AF4802161A8F480216206509AF4D0216F00FAF4802163A8F480216A9008F4DC1
:2008A000021660AF540216C901F021AF4A02161A8F4A0216206509AF4D0216F00FAF4A0212
:2008C000163A8F4A0216A9008F4D021660AF540216C901F004C904D007A9028F5402166057
:2008E000AF4C02161AC904D002A9008F4C0216206509AF4D0216F016A9008F4D0216AF4C50
:200900000216F0033A8002A9038F4C02166020E81860AF4602160A0A0A0AAAC220AF4A02D5
:20092000163A8D0001A90E008D0201AD0401186F480216A8A90000E220208507C900F00E33
:20094000DABB18AF46021669029FCF1A16FAE8C88A2903D0E4C2209818690A00A8E2208A87
:20096000290FD0D560A900EBAF4602160A0A0A0AAAC220AF4A02168D0001A90E008D0201FF
:20098000AD0401186F480216A8A90000E220208507C900F00BDABBBFCF1A16FAC900D018FD
:2009A000E8C88A2903D0E7C2209818690A00A8E2208A290FD0D88006A9018F4D021660A2DB
:2009C0009C128617A9B08519A20000A9008F450216A9008F440216BFCF1A16C923D004A9E3
:2009E0000180008717E8E617A9008717E617AF4402161A8F440216C90ED0DCC220A5171866
:200A00006964008517E220AF4502161A8F450216C915D0BD60A9B08519C220A99C12186FD7
:200A20004802166F4802168517A980008D0001AF4A02168D0201AD04011865178517E220AF
:200A4000A900EBAF4602160A0A0A0AAA208507C900F009AF4602161869028717E8E617A9F9
:200A6000008717E6178A2903D0E2C220A5171869780085178A290F00E220D0D060A038A5FF
:200A80008417A9AF8519A920851EA091198470203E0CA2C0158617A9B08519A900EBAF471C
:200AA00002160A0A0A0AAABF5F1A16C900F007AF4702161869028717E8E617A9008717E6FD
:200AC000178A2903D0E1C220A5171869780085178A290F00E220D0CF60A0C8A18417A9AFA6
:200AE0008519A920851EA071198470203E0CE617AF52021620540DAF51021620540DAF5035
:200B0000021620540D60A093A18417A9AF8519A920851EA0071A8470203E0CA0E3A184172D
:200B2000A0F51B8470A20000203E0CE617E220BFFE1B1620540DBFFD1B1620540DBFFC1B53
:200B40001620540DC2208A18690A00AA1869F51B8570A517186943008517BFFC1B16E220CD
:200B6000D0C660A068A28417A9AF8519A920851EA078198470203E0C18A51769058517AFBC
:200B800055021620540D60A048A48417A9AF8519A920851EA088198470203E0CE617A579C4
:200BA00020540DA57820540D60AF4302161A8F430216C901D02AA0A8A38417A9AF8519A9BF
:200BC00020851EA07F198470203E0CE617A674BF62191620540DA90020540D20D318805DC2
:200BE000C932D059A0A8A38417A900A000009717C8C01000D0F8A674BF621916EBA900C234
:200C000020F8186F5002168F500216900C18AF5202166901008F520216A57418657885789B
:200C2000E220900BAF5202161869018F520216D8207C0DA9008F4302168F54021660DA8BAF
:200C4000A91648ABB270F00F20E506A617E88617A670E8867080EDABFA6020FB10A57EC9F7
:200C60000AF004A9058002A9018F540216A9008581A9308580A9008F0002AF8F0C02AFA936
:200C800018858A8586C220A955C68584E22020A91622A81000A03FA88417A9AF8519A923D4
:200CA000851EA067198470203E0CA08DA88417A920851EA071198470203E0CE617AF5202AF
:200CC0001620540DAF51021620540DAF50021620540DAF540216C905D02BA058AB8417A08A
:200CE000231A8470203E0CA0A8AB8417A03B1A8470203E0CA018AA8417A923851EA0121A40
:200D00008470203E0C20390DA9008F4A0216A20200A00000A9009FCF1A16E8C8C00A00D0A0
:200D2000F5E8E8E8E8AF4A02161A8F4A0216C914D0DFA9008F4A021660A02DA98417A9AF13
:200D40008519A920851EA09D198470203E0CA58020540D60DA48EBA900EB29F04A4A4A4AED
:200D6000AABF52191620E506E617A900EB68290FAABF52191620E506E617FA608BC220A5EF
:200D800074290F00F03BA90A018F521A16AAE8E8BFCF1A16C9090AD01EDAAF521A16AABF41
:200DA000CF1A169FDD1A16CAD0F5FAA574290F003A8574D0DB800AAF521A1638E90E008066
:200DC000C8E220AB608BA9808F0000AFA9008F0302AF8F0F02AF8F8202AF8F0001AFA90166
:200DE0008F0B01AFA9088F8302AF8F8702AFC220A900008F0901AF8F0802AF8F0A02AF8F7A
:200E00001402AF8F1602AF8F8002AFA900108F0102AFA900188F0D02AFA940008F0402AFC2
:200E20008F1002AFA920008F0602AF8F1202AFA9FF0FA2131EA0000054B016A9FF03A20F61
:200E400032A0002054AF16A9FF03A2132EA0002454AF16A9FFFFA20000A0000054B11AA96B
:200E6000FFFFA20000A0000054B21BA9FFFFA20000A0000054B31CA9FFFFA20000A000001C
:200E800054B41DA9FFAFA20000A0000054B51EA9FF07A20F3EA0008054AF16E220ABA90040
:200EA0008F0C02AFA9018F0002AFA9038F0801AF60A9288F4E0216A9008F1000AF8F4A0211
:200EC000168F4D02168F4302168F5002168F5102168F520216857885798F0500AF8F060063
:200EE000AF8F0700AFA9018F550216A9508511A9FF8F4801008F4901008F4A01008F4B01BB
:200F000000A9FF8F4C01008F4D01008F4E01008F4F0100200310A9018F0002AFA9008F0C52
:200F200002AFA917858A8586C220A9C3CC8584E22020A916A91F8F0000AF60AF4302161A98
:200F40008F430216C914D03FA9008F430216A20000A5821A8582A20000A9B08519A00018ED
:200F60008417A20000A00000BF0F3616F00D1AC909D002A9029F0F36169717E8C8A900977C
:200F800017C8E0C005D0E160A9008F0002AFA916858A8586C220A90D478584E22020A91631
:200FA000A08AAD8417A9AF8519A970851EA0A9198470203E0CA024AE8417A970851EA0C024
:200FC000198470203E0CA0C4AE8417A970851EA0E3198470203E0CA9008582A9B08519A0F0
:200FE00000188417A20000A00000BF0F36169717E8C8A9009717C8E00008D0EEA9018F0C7A
:2010000002AF60A200108617A9B08519A900A000009717C8C00010D0F860A53FD0034CA31C
:2010200010C220A9F51D8D4003A916008D4203A9541A8FF71D16A916008FF91D16A9F51B9F
:201040008D5403A916008D5603A900008F031E16A91F008F051E16E220A9028FF61D162281
:20106000181100B002803CAD2E03D037A94F8FF421AEA9108FF441AE22F8100060AD2E0317
:20108000F021C220AFFF1D168FFB1D16AF011E168FFD1D16E220A9598F5822AEA9108F58C1
:2010A00042AE60AD2E031869308F7825AEA9108F7845AE60A53FF042C220A9F51D8D4003E1
:2010C000A9541A8FF71D16A964008F071E16A900008F091E16A9F51B8F031E16A916008F27
:2010E000051E16E220A9028FF61D16A9168D4203A9168FF91D1622FC100060A900EBA9007C
:20110000857E85928590A20000BFFE1B16CF5202169029D016BFFD1B16CF510216901DD096
:201120000ABFFC1B16CF5002169011E67E8A18690A8590AAA57EC90AD0CF8044A25A00BF95
:20114000F41B169FFE1B16CAE490D0F3A900A00600EBA590AAA95F9FF51B16E888D0F8A9D4
:20116000009FF51B16E8AF5002169FF51B16E8AF5102169FF51B16E8AF5202169FF51B165B
:2011800060A68CE00000F004CA868C60A900EBA788857FC220E688D002E68AE22029F04AEF
:2011A0004A4AAA7CA71160C711C711C711CA11CA112C14231675168316A6167B12D711EA67
:2011C00011EA1103125C124C8111C220E688D002E68AE2204C8111C220E688D002E68AE6B8
:2011E00088D002E68AE2204C8111C220E688D002E68AE688D002E68AE688D002E68AE22051
:201200004C8111A57FC9E0D053C220A7888D2001C220E688D002E68AE220C220E688D0028B
:20122000E68AE220C220A7888D2201C220E688D002E68AE220C220E688D002E68AE220C291
:2012400020AD00808D2401AD02808D2601AD2801858AAD2A01858CE2204CA611C220E68889
:20126000D002E68AE688D002E68AE688D002E68AE688D002E68AE2204C8111A57FC9A0F0BF
:20128000034CD711A788C220E688D002E68AE220C900D04CA590C9089019A9878F00F1AF61
:2012A000A93F8F00F1AFC220E688D002E68AE2204C8111EBA788C220E688D002E68AE220F7
:2012C000C2204AE22048290F09808F00F1AF68C2204A4A4A4AE220293F8F00F1AF4C8111BF
:2012E000C901D013A788C220E688D002E68AE220290F85904C8111C902D04CA592C90890D4
:2013000019A9A78F00F1AFA93F8F00F1AFC220E688D002E68AE2204C8111EBA788C220E6CA
:2013200088D002E68AE220C2204AE22048290F09A08F00F1AF68C2204A4A4A4AE220293F7F
:201340008F00F1AF4C8111C903D013A788C220E688D002E68AE220290F85924C8111C90414
:20136000D04CA594C9089019A9C78F00F1AFA93F8F00F1AFC220E688D002E68AE2204C8187
:2013800011EBA788C220E688D002E68AE220C2204AE22048290F09C08F00F1AF68C2204A54
:2013A0004A4A4AE220293F8F00F1AF4C8111C905D013A788C220E688D002E68AE220290F2C
:2013C00085944C8111C908D01AA90F38E788C220E688D002E68AE220290F09908F00F1AF68
:2013E0004C8111C909D01AA90F38E788C220E688D002E68AE220290F09B08F00F1AF4C8173
:2014000011C90AD01AA90F38E788C220E688D002E68AE220290F09D08F00F1AF4C8111C22B
:2014200020E688D002E68AE2204C8111A57FC950D013A7888F00F1AFC220E688D002E68AEC
:20144000E2204CA611C951D023A900EBA788AAC220E688D002E68AE220A7889F00E6AFC254
:2014600020E688D002E68AE2204C8111C952D023A900EBA788AAC220E688D002E68AE220AD
:20148000A7889F00F2AFC220E688D002E68AE2204CA611C953D023A900EBA788AAC220E602
:2014A00088D002E68AE220A7889F00F3AFC220E688D002E68AE2204CA611C954D023A900A0
:2014C000EBA788AAC220E688D002E68AE220A7889F00F0AFC220E688D002E68AE2204C81E6
:2014E00011C955D01FA900EBA788AAC220E688D002E68AE220A788C220E688D002E68AE22A
:20150000204C8111C956D02AA900EBA788C910B0034C7B12AAC220E688D002E68AE220A7A7
:20152000889F00F2AFC220E688D002E68AE2204C8111C957D023A900EBA788AAC220E688A1
:20154000D002E68AE220A7889F00F2AFC220E688D002E68AE2204C8111C958D02AA900EBB7
:20156000A788C910B0034C7B12AAC220E688D002E68AE220A7889F00F2AFC220E688D00208
:20158000E68AE2204C8111C959D023A900EBA788AAC220E688D002E68AE220A7889F00F324
:2015A000AFC220E688D002E68AE2204C8111C95AD023A900EBA788AAC220E688D002E68AF5
:2015C000E220A7889F00E6AFC220E688D002E68AE2204C8111C95ED023A900EBA788AAC2EB
:2015E00020E688D002E68AE220A7889F00E6AFC220E688D002E68AE2204C8111C95FD0202C
:20160000A900EBA788AAC220E688D002E68AE220A7889F00E7AFC220E688D002E68AE220D1
:201620004C8111A57FC961D020C220A788AA868CE220C220E688D002E68AE220C220E688DB
:20164000D002E68AE2204CA611C962D008A2DF02868C4CA611C963D008A27203868C4CA689
:2016600011C966D00620C8164CA611C967D003204E174CA611A900EBA57F290FAAE8868C34
:201680004CA611A78A8F2AF2AFC220A58A1A858A9005A58C1A858CE220A900EBA57F290F9F
:2016A000AA868C4C81114C8111C220A90000858CA586858A18A03400B784693400658485AA
:2016C000889002E68AE22060C220A90000858C18A01C00B784F023691C008D2001C8C8B7E6
:2016E000848D2201A5848D2401A5868D2601AD28018588AD2A01858A8014A03400B7846926
:20170000340065848588A586858A9002E68AE22060A9448D65018D6D01A9018D66018D6E8D
:2017200001A9008D67018D6F01A9008D61018D62018D63018D69018D6A018D6B01A9018D75
:2017400064018D6C01A90B8D60018D680160A788C220E688D002E68AE220A78848C220E630
:2017600088D002E68AE220C220A7888D2001C220E688D002E68AE220C220E688D002E68AB8
:20178000E220C220A7888D2201C220E688D002E68AE220C220E688D002E68AE220C220A5D7
:2017A000888D2401A58A8D2601AD28018588AD2A01858AE22068F004C9C0D017C220A57D70
:2017C0000A0AAAAD24019D0080AD26019D0280E67DE22060A664E00000F004CA866460A70B
:2017E00060C220E660D002E662E220C950D012A7608F00F1AFC220E660D002E662E2208050
:2018000020C962D007A2DF0286648015C963D007A272038664800AC966D006A57A29FE8546
:201820007A60A66AE00000F004CA866A60A766C220E666D002E668E220C950D012A7668FDC
:2018400000F1AFC220E666D002E668E2208020C962D007A2DF02866A8015C963D007A272D7
:2018600003866A800AC966D006A57A29FD857A60A67BE00000F004CA867B60A76CC220E647
:201880006CD002E66EE220C950D012A76C8F00F1AFC220E66CD002E66EE2208020C962D080
:2018A00007A2DF02867B8015C963D007A27203867B800AC966D006A57A29FB857A60A24FCB
:2018C000468660A9168562A200008664A57A0901857A60A2B7468666A9168568A2000086C3
:2018E0006AA57A0902857A60A24F46866CA916856EA20000867BA57A0904857A60AF80E8D5
:20190000AF29FD09028F80E8AFA900853FA9018F02EAAFA9018F03EAAFAF04EAAF2901C9EC
:2019200001F0F6AF05EAAFF00EA9468F2C21AEA9108F2C41AE8010A901853FA9428F2C21D4
:20194000AEA9108F2C41AEAF80E8AF29FD8F80E8AF6030313233343536373839414243446D
:201960004546000103061047414D45204F5645520053434F52453A004C4556454C3A0042A2
:201980004F4E55533A2020004C494E45533A2020004E4558542050494543453A005265736A
:2019A0007461727420696E200057656C636F6D6520746F20433235362054657472697300EB
:2019C00048617264776172652044657369676E65723A2053746566616E7920416C6C616951
:2019E000726500536F66747761726520446576656C6F7065723A2044616E69656C20547272
:201A0000656D626C61790048492053434F5245533A00454E5445522055534552204E414DB9
:201A2000453A005072657373203C456E7465723E207768656E20646F6E65005072657373DD
:201A4000203C426B73703E20746F2064656C6574650000007465747269732E7363720000B5
:201A600000010000000100000001000000010000010100000101000000000000000000005E
:201A800001000000010000000101000000000000000100000001000001010000000000003E
:201AA00000010000010100000001000000000000000100000101000001000000000000001E
:201AC000010000000101000000010000000000232300000000000000000000232323230030
:201AE0000000000000000000002323232300000000000000000000232323230000000000CE
:201B00000000000000232323230000000000000000000023232323000000000000000000AD
:201B2000002323232300000000000000000000232323230000000000000000000023232324
:201B400023000000000000000000002323232300000000000000000000232323230000004A
:201B600000000000000000232323230000000000000000000023232323000000000000004D
:201B800000000023232323000000000000000000002323232300000000000000000000230A
:201BA0002323230000000000000000000023232323000000000000000000002323232300A4
:201BC0000000000000000000002323232300000000000000000000232323230000000000ED
:201BE00000000000002323232323232323232323232323232344414E2020200086240020B8
:201C0000202020202000000000202020202020000000002020202020200000000020202044
:201C2000202020000000002020202020200000000020202020202000000000202020202024
:201C40002000000000202020202020000000002020202020200000000000000000000000E4
:201C6000000000000000000000000000000000000000000000000000000000000000000064
:201C8000000000000000000000000000000000000000000000000000000000000000000044
:201CA000000000000000000000000000000000000000000000000000000000000000000024
:201CC000000000000000000000000000000000000000000000000000000000000000000004
:201CE0000000000000000000000000000000000000000000000000000000000000000000E4
:201D00000000000000000000000000000000000000000000000000000000000000000000C3
:201D20000000000000000000000000000000000000000000000000000000000000000000A3
:201D4000000000000000000000000000000000000000000000000000000000000000000083
:201D6000000000000000000000000000000000000000000000000000000000000000000063
:201D8000000000000000000000000000000000000000000000000000000000000000000043
:201DA000000000000000000000000000000000000000000000000000000000000000000023
:201DC000000000000000000000000000000000000000000000000000000000000000000003
:151DE000000000000000000000000000000000000000000000EE
:201E130000000000000000000000000000000000030303030303030303030303030303037F
:201E33000052525252525252525252525252520000E6E6E6E6E6E6E6E6E6E6E6E6E6E6007F
:201E530000060606060606060606060606060600008A8A8A8A8A8A8A8A8A8A8A8A8A8A008F
:201E73000001010101010101010101010101010000BEBEBEBEBEBEBEBEBEBEBEBEBEBE00DD
:201E930000666666666666666666666666666600000000000000000000000000000000009B
:201EB30000000000000000000000000000000000000000000000000000000000000000000F
:201ED3000404040404040404040404040404040400000000000000000000000000000000AF
:201EF3000000000000000000000000000000000000000000000000000000000000000000CF
:201F130000000000000000000000000000000000030101010101010101010101010100039B
:201F330052414141414141414141414141414180E6F7F7F7F7F7F7F7F7F7F7F7F7F7F7DFE7
:201F5300060707070707070707070707070707088A4E4E4E4E4E4E4E4E4E4E4E4E4E4E1F11
:201F730001020202020202020202020202020204BECECECECECECECECECECECECECECECF5C
:201F9300664646464646464646464646464646260000000909090909090909090909090959
:201FB300090909090909090909090909090909090909090909090909090909090900000009
:201FD3000404040404040404040404040404040400000000000000000000000000000000AE
:201FF3000000000000000000000000000000000000000000000000000000000000000000CE
:20201300000000000000000000000000000000000301E9E9E9E9E9E9E9E9E9E9E9E90403B6
:2020330052414280428042804280428042804180E6F7E9F9E9F9E9F9E9F9E9F9E9F9F7DFAE
:20205300060717681768176817681768176807088A4E6E2D6E2D6E2D6E2D6E2D6E2D4E1F70
:2020730001020103010301030103010301030204BECEDFBFDFBFDFBFDFBFDFBFDFBFCECF4F
:20209300664617661766176617661766176646260000094B6D6D4B4B6D6D4B4B6D6D4B4B83
:2020B3006D6D4B4B6D6D4B4B6D6D4B4B6D6D4B4B6D6D4B4B6D6D4B4B6D6D4B4B6D09000087
:2020D3000404040404040404040404040404040400000000000000000000000000000000AD
:2020F3000000000000000000000000000000000000000000000000000000000000000000CD
:20211300000000000000000000000000000000000301E9E9E9E9E9E9E9E9E9E9E9E90403B5
:2021330052418042804280428042804280424180E6F7F9E9F9E9F9E9F9E9F9E9F9E9F7DFAD
:20215300060768176817681768176817681707088A4E2D6E2D6E2D6E2D6E2D6E2D6E4E1F6F
:2021730001020301030103010301030103010204BECEBFDFBFDFBFDFBFDFBFDFBFDFCECF4E
:202193006646661766176617661766176617462600094B4B6D6D4B4B6D6D4B4B6D6D4B4B37
:2021B3006D6D4B4B6D6D4B4B6D6D4B4B6D6D4B4B6D6D4B4B6D6D4B4B6D6D4B4B6D6D090019
:2021D3000404040404040404040404040404040400000000000000000000000000000000AC
:2021F3000000000000000000000000000000000000000000000000000000000000000000CC
:20221300000000000000000000000000000000000301E9E9E9E9E9E9E9E9E9E9E9E90403B4
:2022330052414280428042804280428042804180E6F7E9F9E9F9E9F9E9F9E9F9E9F9F7DFAC
:20225300060717681768176817681768176807088A4E6E2D6E2D6E2D6E2D6E2D6E2D4E1F6E
:2022730001020103010301030103010301030204BECEDFBFDFBFDFBFDFBFDFBFDFBFCECF4D
:202293006646176617661766176617661766462600096D6D4B4B26264B4B26264B4B26269C
:2022B3004B4B26264B4B26264B4B26264B4B26264B4B26264B4B26264B4B26264B4B091F1F
:2022D3000404040404040404040404040404040400000000000000000000000000000000AB
:2022F3000000000000000000000000000000000000000000000000000000000000000000CB
:20231300000000000000000000000000000000000301E9E9E9E9E9E9E9E9E9E9E9E90403B3
:2023330052418042804280428042804280424180E6F7F9E9F9E9F9E9F9E9F9E9F9E9F7DFAB
:20235300060768176817681768176817681707088A4E2D6E2D6E2D6E2D6E2D6E2D6E4E1F6D
:2023730001020301030103010301030103010204BECEBFDFBFDFBFDFBFDFBFDFBFDFCECF4C
:202393006646661766176617661766176617462600096D6D4B4B26264B4B26264B4B26269B
:2023B3004B4B26264B4B26264B4B26264B4B26264B4B26264B4B26264B4B26264B4B091F1E
:2023D3000404040404040404040404040404040400000000000000000000000000000000AA
:2023F3000000000000000000000000000000000000000000000000000000000000000000CA
:20241300000000000000000000000000000000000301E9E9E9E9E9E9E9E9E9E9E9E90403B2
:2024330052414280428042804280428042804180E6F7E9F9E9F9E9F9E9F9E9F9E9F9F7DFAA
:20245300060717681768176817681768176807088A4E6E2D6E2D6E2D6E2D6E2D6E2D4E1F6C
:2024730001020103010301030103010301030204BECEDFBFDFBFDFBFDFBFDFBFDFBFCECF4B
:202493006646176617661766176617661766462600094B4B26264B4B26264B4B26264B4BDE
:2024B30026264B4B26264B4B26264B4B26264B4B26264B4B26264B4B26264B4B2626091F67
:2024D3000404040404040404040404040404040400000000000000000000000000000000A9
:2024F3000000000000000000000000000000000000000000000000000000000000000000C9
:20251300000000000000000000000000000000000301E9E9E9E9E9E9E9E9E9E9E9E90403B1
:2025330052418042804280428042804280424180E6F7F9E9F9E9F9E9F9E9F9E9F9E9F7DFA9
:20255300060768176817681768176817681707088A4E2D6E2D6E2D6E2D6E2D6E2D6E4E1F6B
:2025730001020301030103010301030103010204BECEBFDFBFDFBFDFBFDFBFDFBFDFCECF4A
:202593006646661766176617661766176617462600094B4B26264B4B26264B4B26264B4BDD
:2025B30026264B4B26264B4B26264B4B26264B4B26264B4B26264B4B26264B4B2626091F66
:2025D3000404040404040404040404040404040400000000000000000000000000000000A8
:2025F3000000000000000000000000000000000000000000000000000000000000000000C8
:20261300000000000000000000000000000000000301E9E9E9E9E9E9E9E9E9E9E9E90403B0
:2026330052414280428042804280428042804180E6F7E9F9E9F9E9F9E9F9E9F9E9F9F7DFA8
:20265300060717681768176817681768176807088A4E6E2D6E2D6E2D6E2D6E2D6E2D4E1F6A
:2026730001020103010301030103010301030204BECEDFBFDFBFDFBFDFBFDFBFDFBFCECF49
:202693006646176617661766176617661766462600096D6D4B4B26264B4B26264B4B262698
:2026B3004B4B26264B4B26264B4B26264B4B26264B4B26264B4B26264B4B26264B4B091F1B
:2026D3000404040404040404040404040404040400000000000000000000000000000000A7
:2026F3000000000000000000000000000000000000000000000000000000000000000000C7
:20271300000000000000000000000000000000000301E9E9E9E9E9E9E9E9E9E9E9E90403AF
:2027330052418042804280425142514251424180E6F7F9E9F9E9F9E9E7E9E7E9E7E9F7DF6A
:20275300060768176817681736673667361707088A4E2D6E2D6E2D6E4E6E4E6E4E6E4E1FFC
:2027730001020301030103010101010101010204BECEBFDFBFDFBFDFBEDFBEDFBEDFCECF51
:202793006646661766176617051705170517462600096D6D4B4B26264B4B26264B4B2626BA
:2027B3004B4B26264B4B26264B4B26264B4B26264B4B26264B4B26264B4B26264B4B091F1A
:2027D3000404040404040404040404040404040400000000000000000000000000000000A6
:2027F3000000000000000000000000000000000000000000000000000000000000000000C6
:20281300000000000000000000000000000000000301E9E9E9E9E9E9E9E9E9E9E9E90403AE
:2028330052414280428042514251425142804180E6F7E9F9E9F9E9E7E9E7E9E7E9F9F7DF69
:20285300060717681768173667366736676807088A4E6E2D6E2D6E4E6E4E6E4E6E2D4E1FAB
:2028730001020103010301010101010101030204BECEDFBFDFBFDFBEDFBEDFBEDFBFCECF50
:202893006646176617661705170517051766462600094B4B26264B4B26264B4B26264B4BFD
:2028B30026264B4B26264B4B26264B4B26264B4B26264B4B26264B4B26264B4B2626091F63
:2028D3000404040404040404040404040404040400000000000000000000000000000000A5
:2028F3000000000000000000000000000000000000000000000000000000000000000000C5
:20291300000000000000000000000000000000000301E9E9E9E9E9E9E9E9E9E9E9E90403AD
:2029330052418042804280425142514251424180E6F7F9E9F9E9F9E9E7E9E7E9E7E9F7DF68
:20295300060768176817686736673667361707088A4E2D6E2D6E2D6E4E6E4E6E4E6E4E1FAA
:2029730001020301030103010101010101010204BECEBFDFBFDFBFDFBEDFBEDFBEDFCECF4F
:202993006646661766176617051705170517462600094B4B26264B4B26264B4B26264B4BFC
:2029B30026264B4B26264B4B26264B4B26264B4B26264B4B26264B4B26264B4B2626091F62
:2029D3000404040404040404040404040404040400000000000000000000000000000000A4
:2029F3000000000000000000000000000000000000000000000000000000000000000000C4
:202A1300000000000000000000000000000000000301E9E9E9E9E9E9E9E9E9E9E9E90403AC
:202A330052414280428042514251425142804180E6F7E9F9E9F9E9E7E9E7E9E7E9F9F7DF67
:202A5300060717681768173667366736676807088A4E6E2D6E2D6E4E6E4E6E4E6E2D4E1FA9
:202A730001020103010301010101010101030204BECEDFBFDFBFDFBEDFBEDFBEDFBFCECF4E
:202A93006646176617661705170517051766462600096D6D4B4B6D6D4B4B6D6D4B4B6D6D0D
:202AB3004B4B6D6D4B4B6D6D4B4B6D6D4B4B6D6D4B4B6D6D4B4B6D6D4B4B6D6D4B4B091F35
:202AD3000404040404040404040404040404040400000000000000000000000000000000A3
:202AF3000000000000000000000000000000000000000000000000000000000000000000C3
:202B1300000000000000000000000000000000000301E9E9E9E9E9E9E9E9E9E9E9E90403AB
:202B330052418042804280428042804280424180E6F7F9E9F9E9F9E9F9E9F9E9F9E9F7DFA3
:202B5300060768176817681768676817681707088A4E2D6E2D6E2D6E2D6E2D6E2D6E4E1F15
:202B730001020301030103010301030103010204BECEBFDFBFDFBFDFBFDFBFDFBFDFCECF44
:202B9300664666176617661766176617661746260000096D4B4B6D6D4B4B6D6D4B4B6D6D56
:202BB3004B4B6D6D4B4B6D6D4B4B6D6D4B4B6D6D4B4B6D6D4B4B6D6D4B4B6D6D4B091F1F60
:202BD3000404040404040404040404040404040400000000000000000000000000000000A2
:202BF3000000000000000000000000000000000000000000000000000000000000000000C2
:202C1300000000000000000000000000000000000300040404040404040404040404040367
:202C330052414141414141414141414141414180E6F7F7F7F7F7F7F7F7F7F7F7F7F7F7DFDA
:202C5300060707070707070707070707070707088A4E4E4E4E4E4E4E4E4E4E4E4E4E4E1F04
:202C730001020202020202020202020202020204BECECECECECECECECECECECECECECECF4F
:202C930066464646464646464646464646464626000000090909090909090909090909094C
:202CB30009090909090909090909090909090909090909090909090909090909091F1F00BE
:202CD3000404040404040404040404040404040400000000000000000000000000000000A1
:202CF3000000000000000000000000000000000000000000000000000000000000000000C1
:202D1300000000000000000000000000000000000303030303030303030303030303030370
:202D33000080808080808080808080808080800000DFDFDFDFDFDFDFDFDFDFDFDFDFDF004E
:202D530000080808080808080808080808080800001F1F1F1F1F1F1F1F1F1F1F1F1F1F003E
:202D73000004040404040404040404040404040000CFCFCFCFCFCFCFCFCFCFCFCFCFCF00B6
:202D930000262626262626262626262626262600000000001F1F1F1F1F1F1F1F1F1F1F1F98
:202DB3001F1F1F1F1F1F1F1F1F1F1F1F1F1F1F1F1F1F1F1F1F1F1F1F1F1F1F1F1F1F00005E
:202DD3000404040404040404040404040404040400000000000000000000000000000000A0
:202DF3000000000000000000000000000000000000000000000000000000000000000000C0
:202E13001A0A0700090C0900090A10000B0A1700091206001E120300080D1D000A0733003D
:202E33000810170015140700081212000B0E230037120B000B0C2B0005111F000B073E009D
:202E530020131900091C06000C15230014191500321D04001B1B1200161722000D1B180038
:202E73001820080007200E00161A1E00091B1F000A13390008192700051143001F1B1D00EB
:202E9300261F110009260700071E24001B1F1D002A1A39002B271A0022252400292527002A
:202EB300171464002A27230006320B0017282800372B1900121B570011292D0008186D005F
:202ED30037320D002328370017370B0016293C0013244E000A2F33001A341F002C390B0045
:202EF300362B360025215B002C341C000C2162000A352400573219000A2C420022274C006A
:202F13000C3E1000082B5500004116002C3734000C2A800023229400182B7B0010299400B4
:202F33001153150022541000305310003D521000104E2B00853A50003633800020387800FC
:202F53004F5807006A550D004C50260017455B002F512F00664C33003F503100303E700039
:202F7300174C4A0032465900514C3E00464655002241700024388D001838910009427500A7
:202F93004330A000424A4D00434E42003E416E0034504200064A6300354D4E00085F3C0086
:202FB3000B6626003737B200213FAD002345A10068439500634F76000942BC00344AA200A2
:202FD30068741200327917004875220014646700524F9E0081702A000953B0001A5B9600FF
:202FF300327149004B6F4B003C5A94002F54B0006670480015658300595D8B004C5D9000DB
:203013006564750060686A00446B68004F657900606C6100866C5700526C6600726C5E0013
:2030330039677F00386D6D00AD773000395ECF005F61CA00439336004169BE00C289380011
:20305300BC8940009F9333008C9B23002F72C900679743001470D900CC7D840023869B0010
:2030730087925D004B8A88006C7FA5004B859B006E78BE006C8B820085819E006D87920028
:203093007D8C7E00A0868900C89749007E888E00BE974D00A1906C005080B6008F8E790050
:2030B3008D898B0044977300B59757003183BC000E85C1008E7EBC0072997200D4A6580090
:2030D300CDA65A00D9998D00C7A76600C8B35A00ADA79100C0A1A10017A5C300DBB55E0014
:2030F300BCAA8A0043A5BD008B9EC200A8B17E0068A6B400DDB469008BAAA100D6B56F00DA
:20311300D3B37A00A5A2BE009EAD9E00E4A5A6008EA8B500CFB285009FA9B000CCB08E008C
:20313300ADAAAB00A9B09F00CFB781002CA7E600BBB7A100E5C0790058ABE800DCC4750091
:20315300E8B99900DFC28A00DCC094007AB0E300D4C09900DCBE9F00ECC98400D2C2A200E5
:20317300CCD47800E8D47200D7CD9000B6D38900CACC9F00C5C5B700F2CF8C00EBCC98009E
:20319300C9C0C900C0C5BE00EDD19000D3C9B300E7CBA800E7CE9F00E2CDA700EAC8B7007D
:2031B300BCCEB200BDC8C800E0D0B000AAC8DF0069CCE600AFCFCD008ECDE10035D2EB002E
:2031D300E1E28A00EBD4B500EFD8AB00E0D9B700DECFD900F2D3C700F7E29700E9D8BC003A
:2031F300D8D7CB00D2D7CE00E2D9C500ECF0B900ECE7DA00DBE6E600E3E7E30000000000B5
:20321300CCCCCC00999999006666660033333300FFFFFF0000CCFF000099FF000066FF00DC
:203233000033FF0000000000333333006666660099999900CCCCCC00FFFFFF0000CC9900ED
:20325300000000000000000000000000000000000099CC0033CCFF0066CCFF006699FF00C9
:203273003366FF000033CC00000000000000000000000000000000003300CC0000FFCC00DA
:2032930033FFCC0000333300006666000099990000CCCC0000FFFF003399CC003366CC0026
:2032B3000000330000006600000099000000CC000000FF006633FF003300FF0000FF99009C
:2032D30066FFCC0033CC9900336666003399990033CCCC0033FFFF000066990000339900E7
:2032F30033336600333399003333CC003333FF006633CC009966FF006600FF0000FF66002C
:2033130066FF990033CC6600009966006699990066CCCC0066FFFF00336699000033660073
:20333300666699006666CC006666FF00330099009933CC00CC66FF009900FF0000FF330053
:2033530033FF66000099330000CC660033FF990099CCCC0099FFFF006699CC000066CC0034
:203373009999CC009999FF009933FF006600CC0066009900CC33FF00CC00FF0000CC00007A
:2033930000CC3300006633003399660066CC990099FFCC00CCFFFF0099CCFF003399FF0028
:2033B300CCCCFF00CC99FF009966CC0066339900330066009900CC003300330033CC33006C
:2033D30066CC660000FF000033FF330066FF660099FF9900CCFFCC0000000000000000004B
:2033F30000000000CC99CC0099669900993399009900990066336600660066000066000029
:203413003366330000990000339933006699660099CC9900000000000000000000000000D2
:20343300FFCCFF00FF99FF00FF66FF00FF33FF00FF00FF00CC66CC00CC33CC000033000089
:2034530033CC0000336600006699330099CC6600CCFF9900FFFFCC00FF993300FFCC990067
:20347300FFCCCC00FF99CC00CC6699009933660066003300CC009900CC00CC0033FF000079
:2034930066FF33003399000066CC000099FF3300FFFF9900CCCC9900CC660000CC996600F3
:2034B300FF999900CC999900FF339900CC00660099006600FF33CC00FF00CC0066FF0000A0
:2034D30099FF660066CC330066990000FFFF6600CCCC6600999966006633000099663300B2
:2034F300FF666600CC6666009966660099003300CC339900FF66CC00FF00990099FF00002C
:20351300CCFF660099CC3300FFFF3300CCCC330099993300666633009966000099330000A4
:20353300FF333300CC3333009933330066333300CC336600FF669900FF006600CCFF000083
:20355300CCFF3300FFFF0000CCCC0000999900006666000033330000CC993300CC66330063
:20357300FF000000CC000000990000006600000033000000FF336600FF00330099CC00000C
:2035930000000000000000000000000000000000CA990000FFCC3300FFCC6600FF99660088
:2035B300FF663300CC33000000000000000000000000000000000000CC003300FFFFFF0065
:2035D300CCCCCC0099999900666666003333330000000000FFCC0000FF990000FF66000016
:2035F300FF33000000000000333333006666660099999900CCCCCC00FFFFFF00000000008F
:20361300000000000000000000000000000000000000000000000000000000000000000097
:20363300000000000000000000000000000000000000000000000000000000000000000077
:20365300000000000000000000000000000000000000000000000000000000000000000057
:20367300000000000000000000000000000000000000000000000000000000000000000037
:20369300000000000000000000000000000000000000000000000000000000000000000017
:2036B3000000000000000000000000000000000000000000000000000000000000000000F7
:2036D3000000000000000000000404000000010100000505050000000202000000000000BA
:2036F3000000000000000000000000000000000000000000000000000000000000000000B7
:20371300000000000000000004000004000100000100050000000002000000000000000085
:20373300000000000000000000000000000000000000000000000000000000000000000076
:2037530000000000000000000400000000000000010005050500000202020000000000003C
:20377300000000000000000000000000000000000000000000000000000000000000000036
:20379300000000000000000004000000000001010000000000050002000002000000000007
:2037B3000000000000000000000000000000000000000000000000000000000000000000F6
:2037D3000000000000000000040000040001000000000000000500020000020000000000C4
:2037F3000000000000000000000000000000000000000000000000000000000000000000B6
:20381300000000000000000000040400000101010100050505000000020200000000000076
:20383300000000000000000000000000000000000000000000000000000000000000000075
:20385300000000000000000000000000000000000000000000000000000000000000000055
:20387300000000000000000000000000000000000000000000000000000000000000000035
:203893000000000606060600000505000008080808000200000200030303000400000400BE
:2038B3000000000000000000000000000000000000000000000000000000000000000000F5
:2038D3000000000600000000050000050008000000000202000200000300000004040000AC
:2038F3000000000000000000000000000000000000000000000000000000000000000000B5
:2039130000000006060600000500000500080808000002000202000003000000040400004F
:20393300000000000000000000000000000000000000000000000000000000000000000074
:2039530000000006000000000500000500080000000002000202000003000000040400002B
:20397300000000000000000000000000000000000000000000000000000000000000000034
:203993000000000600000000000505000008080808000200000200030303000400000400CF
:2039B3000000000000000000000000000000000000000000000000000000000000000000F4
:2039D3000000000000000000000000000000000000000000000000000000000000000000D4
:2039F3000000000000000000000000000000000000000000000000000000000000000000B4
:203A1300000000050505050002020202000303030300080808000007070700000606000032
:203A3300000000000000000000000000000000000000000000000000000000000000000073
:203A5300000000000505000002000000000003030000080000080000070000060000000024
:203A7300000000000000000000000000000000000000000000000000000000000000000033
:203A93000000000005050000020202000000030300000800000800000700000006060000DA
:203AB3000000000000000000000000000000000000000000000000000000000000000000F3
:203AD30000000000050500000200000000000303000008080800000007000000000006009C
:203AF3000000000000000000000000000000000000000000000000000000000000000000B3
:203B130000000000050500000200000000000303000008000008000007000006000006005D
:203B3300000000000000000000000000000000000000000000000000000000000000000072
:203B5300000000000505000002020202000003030000080000080007070700000606000009
:203B7300000000000000000000000000000000000000000000000000000000000000000032
:203B9300000000000000000000000000000000000000000000000000000000000000000012
:203BB3000000000000000000000000000000000000000000000000000000000000000000F2
:203BD30000000000000000000C0C0C0C0C0C0C0C0C0C0C0C0C0C0C0C0C0C0C0C00000000E2
:203BF3000000000000000000000000000000000000000000000000000000000000000000B2
:203C130000000000000000000C0C0C0C0C0C0C0C0C0C0C0C0C0C0C0C0C0C0C0C00000000A1
:203C3300000000000000000000000000000000000000000000000000000000000000000071
:203C530000000000000000000C0C0C0C0C0C0C0C0C0C0C0C0C0C0C0C0C0C0C0C0000000061
:203C7300000000000000000000000000000000000000000000000000000000000000000031
:203C930000000000000000000C0C0C0C0C0C0C0C0C0C0C0C0C0C0C0C0C0C0C0C0000000021
:203CB3000000000000000000000000000000000000000000000000000000000000000000F1
:203CD3000000000000000000000000000000000000000000000000000000000000000000D1
:203CF3000000000000000000000000000000000000000000000000000000000000000000B1
:203D1300000000000000000000000000000000000000000000000000000000000000000090
:203D3300000000000000000000000000000000000000000000000000000000000000000070
:203D5300000000000000000000000000000000000000000000000000000000000000000050
:203D7300000000000000000000000000000000000000000000000000000000000000000030
:203D9300000000000000000000000000000000000000000000000000000000000000000010
:203DB3000000000000000000000000000000000000000000000000000000000000000000F0
:203DD3000000000000000000000000000000000000000000000000000000000000000000D0
:203DF3000000000000000000000000000000000000000000000000000000000000000000B0
:203E130000000000000000000000000000000000000000000000000000000000000000008F
:203E330000000000000000000000000000000000000000000000000000000000000000006F
:203E5300000000000000140C1400000000000000000000000000000000000000000000001B
:203E730000000000000004143C1000000000000000000000000000000000000000000000CB
:203E930000000000000000000000000000000000000000000000000000000000000000000F
:203EB3000000000000000000000000000000000000000000000000000000000000000000EF
:203ED3000000000000000000000000000000000000000000000000000000000000000000CF
:203EF3000000000000000000000000000000000000000000000000000000000000000000AF
:203F130000000000181818180000180066666600000000006666FF66FF666600183E603CF6
:203F3300067C180062660C18306646003C663C3867663F00060C1800000000000C1830303C
:203F530030180C0030180C0C0C18300000663CFF3C6600000018187E181800000000000025
:203F7300001818300000007E0000000000000000001818000003060C183060003C666E76DD
:203F930066663C001818381818187E003C66060C30607E003C66061C06663C00060E1E6612
:203FB3007F0606007E607C0606663C003C66607C66663C007E660C18181818003C66663C41
:203FD30066663C003C66663E06663C00000018000018000000001800001818300E1830607A
:203FF30030180E0000007E007E00000070180C060C1870003C66060C180018003C666E6ECC
:2040130060623C00183C667E666666007C66667C66667C003C66606060663C00786C666605
:20403300666C78007E60607860607E007E606078606060003C66606E66663C006666667E31
:20405300666666003C18181818183C001E0C0C0C0C6C3800666C7870786C660060606060B5
:2040730060607E0063777F6B6363630066767E7E6E6666003C66666666663C007C66667CB6
:20409300606060003C666666663C0E007C66667C786C66003C66603C06663C007E18181815
:2040B300181818006666666666663C0066666666663C18006363636B7F77630066663C18A6
:2040D3003C6666006666663C181818007E060C1830607E003C30303030303C0000C06030A1
:2040F300180C06003C0C0C0C0C0C3C0000183C6600000000000000000000007E60301800EF
:204113000000000000003C063E663E000060607C66667C0000003C6060603C000006063E02
:2041330066663E0000003C667E603C00000E183E1818180000003E66663E067C0060607CF4
:20415300666666000018003818183C00000600060606063C0060606C786C66000038181826
:2041730018183C000000667F7F6B630000007C666666660000003C6666663C0000007C66EE
:20419300667C606000003E66663E060600007C666060600000003E603C067C0000187E180A
:2041B30018180E000000666666663E0000006666663C18000000636B7F3E36000000663CEF
:2041D300183C660000006666663E0C7800007E0C18307E001C18183018181C0018181800BE
:2041F300181818003818180C181838000000327E4C000000000000000000000000003C3C14
:204213003C3C000000003C24243C00000000183C3C180000000018242418000018242418BB
:2042330000000000003C424266246600001800180C06663C0C12307C3062FC001C207020B3
:2042530070201C00000000000000000000000000000000000000000000000000000000009F
:2042730000000000000000000000000000000000000000000000000000000000000000002B
:2042930000000000000000000000000000000000000000000000000000000000000000000B
:2042B3000000000000000000000000000000000000000000000000000000000000000000EB
:2042D3000000000000000000000000000000000000000000000000000000000000000000CB
:2042F30000000000000000000000000000000000000000000000000000000000FFFFFFFFAF
:20431300FFFFFFFFF0F0F0F0F0F0F0F000000000FFFFFFFFFF000000000000000000000013
:20433300000000FF8080808080808080CCCC3333CCCC333301010101010101010000000067
:20435300CCCC3333FFFEFCF8F0E0C08003030303030303031818181F1F1818180000000065
:204373000F0F0F0F1818181F1F000000000000F8F8181818000000000000FFFF0000001F13
:204393001F181818181818FFFF000000000000FFFF181818181818F8F8181818C0C0C0C097
:2043B300C0C0C0C0E0E0E0E0E0E0E0E00707070707070707FFFF000000000000FFFFFF00B7
:2043D300000000000000000000FFFFFF030303030303FFFF00000000F0F0F0F00F0F0F0FC1
:2043F30000000000181818F8F8000000F0F0F0F000000000F0F0F0F00F0F0F0F000000FFB7
:20441300FF000000081C3E7F7F1C3E001818181818181818000000FFFF0000000000FFFF14
:204433000000000000FFFF000000000000000000FFFF000030303030303030300C0C0C0CBD
:204453000C0C0C0C000000E0F038181818181C0F07000000181838F0E0000000C0C0C0C047
:20447300C0C0FFFFC0E070381C0E070303070E1C3870E0C0FFFFC0C0C0C0C0C0FFFF030331
:2044930003030303003C7E7E7E7E3C000000000000FFFF00367F7F7F3E1C080060606060FA
:2044B30060606060000000070F1C1818C3E77E3C3C7EE7C3003C7E66667E3C001818666603
:2044D30018183C000606060606060606081C3E7F3E1C0800181818FFFF181818C0C030307C
:2044F300C0C0303018181818181818180000033E76363600FF7F3F1F0F07030100000000F0
:20451300000000000000000000000000000000000000000000000000000000000000000088
:20453300000000000000000000000000000000000000000000000000000000000000000068
:2045530000000000CC993366CC9933663399CC663399CC6602060CD8F0E0C0000103070FBA
:204573001F3F7FFF80C0E0F0F8FCFEFFFFFFFFFF000000000F0F0F0F0F0F0F0FF0F0F0F017
:20459300FFFFFFFF0F0F0F0FFFFFFFFFFFFFFFFFF0F0F0F0FFFFFFFF0F0F0F0F0C0C0303C2
:2045B30000000000000000000C0C0303C0C030300000000000000000C0C030300C0C0303EC
:2045D3000C0C0303CCCC33330000000000183C7E181818180010307F7F30100000080CFEEA
:2045F300FE0C0800181818187E3C18000000364936000000000000000000000056676D2065
:204613006300000051010000999E360000000000000000005A4800000000000000000000C3
:20463300000000000600100500000000000000000C000000000000000000000050E550F0CB
:2046530063636350F263636350F463636350F663636350F863636350FA63636350FC6363E1
:204673006350FF6656676D209100000051010000999E36000000000000000000A58400004C
:204693000000000000000000000000000600100500000000000000000C00000000000000E0
:2046B300000000005088500F509063636363509D636363635085500C509063636363509D41
:2046D300636363635085500A509063636363509D63636363508C5007509063636363509D9B
:2046F30063636363508C5009509063636363509462509762509C62509F6656676D20B285C7
:20471300010051010000000000000000000066840100A5D7430073000000A5D74300E8036C
:2047330000000000000000000000000000004C00000000000000000000000000000000001A
:2047530000000000000000000000000000000000000000000000647ADA000000000000008E
:2047730000000000000000000000000000000000000000000000000000005F05015F04005E
:204793005E01205E08005EBD205EC0305E20015E40805E60925E808A5EC0385EE0005E232E
:2047B300E55E433F5E63C15E839E5EE3005EA0575EB0015E430B5EA0985EB02D5EC1305E51
:2047D30021015E41805E61925E818A5EC1385EE1005E24E55E443F5E64C15E849E5EE400A8
:2047F3005EA1575EB1015E440B5EA1225EB12A5EC2105E22015E42805E62925E828A5EC28C
:20481300185EE2005E25E55E453F5E65C15E859E5EE5005EA2685EB2015E450B5EA2945E82
:20483300B22D5EC3205E28015E48805E68925E888A5EC3285EE8005E2BE55E4B3F5E6BC161
:204853005E8B9E5EEB005EA3685EB3015E4B0B5EA31C5EB32A5EC4305E29015E49805E6926
:20487300925E898A5EC4385EE9005E2CE55E4C3F5E6CC15E8C9E5EEC005EA4575EB4015E02
:204893004C145EC5305E2A205E4A0B5E6AF45E8AE15EC5345EEA015E2D205E4D3F5E6DF37F
:2048B3005E8D545EED005EA5575EB5015E4D055EA5225EB52A5EC6305E30005E50075E7076
:2048D300D85E90FF5EC6385EF0005E33005E533F5E73F55E93F05EF3005EA6575EB6015E0F
:2048F30053055EB6095EBD305EC7305E341E5E543F5E74F55E94D75EF4025E54055EBD3801
:204913005EC8305E32045E523F5E72F75E92B55EF2005EC8315E52055EA8665EB8025EA75A
:20493300CB5EB7055EBD3C5EC8115E350E5E553F5E75C95E95045EF5005E550B5EBD3E5E03
:2049530031015E513F5E71985E91065EF1005EC7395E510B5FC0205F20015F40805F609232
:204973005F808A5FC0285FE0005F23E55F433F5F63C15F839E5FE3005FA0575FB0015F43A0
:20499300105FA0985FB02D5FC1105F21015F41805F61925F818A5FC1185FE1005F24E55F55
:2049B300443F5F64C15F849E5FE4005FA1575FB1015F44105FA1225FB12A5FC2305F2201CF
:2049D3005F42805F62925F828A5FC2385FE2005F25E55F453F5F65C15F859E5FE5005FA2B3
:2049F300575FB2015F45145FC3305F28015F48805F68925F888A5FC3385FE8005F2BE55F49
:204A13004B3F5F6BC15F8B9E5FEB005FA3575FB3015F4B145FC4305F29015F49805F699214
:204A33005F898A5FC4385FE9005F2CE55F4C3F5F6CC15F8C9E5FEC005FA4575FB4015F4C7B
:204A5300145FC5305F2AA05F4A045F6AF55F8AC15FC5325FEA015F2DC05F4D3F5F6DF05FAB
:204A73008D045FED005FA5695FB5015F4D055FA51F5FB52A5FC6305F30015F50805F70923D
:204A93005F908A5FC6385FF0005F33E55F533F5F73C15F939E5FF3005FA6575FB6015F53DD
:204AB300145FC7305F31015F51805F71925F918A5FC7385FF1005F34E55F543F5F74C15FD1
:204AD300949E5FF4005FA7575FB7015F54145FC8305F32015F52805F72925F928A5FC838AC
:204AF3005FF2005F35E55F553F5F75C15F959E5FF5005FA8575FB8015F551461D2045EBDDB
:204B13002E5EBD3E5EBD365EBD3E5EBD3A5EBD3E5EBD3C61FF045EBD2C5EBD245EBD2061C6
:204B3300D10E5EB50A5FB50A61D3045EB00D5EB0295EB10A5EB12A5EB20D5EB2295EB30AFB
:204B53005EB32A5EB52A5EBD305E71F85E91CA5EBD315FB00D5FB0295FB10A5FB12A5FB5F7
:204B73002A61FF045EBD215EBD2061D2045EB50A5FB50A61FF045EB0095EB10A5EB2095EA0
:204B9300B30A5FB0095FB10A61D10E5EA0665EB02E5EA1985EB12D5EA25F5EB22E5EA3942E
:204BB3005EB32D5EA5985EB52D5EBD305EBD385EBD3C5E71985E91065EBD3D5FA0665FB0AC
:204BD3002E5FA1985FB12D5FA5965FB52D61D3045EBD355EBD315EBD3061D1095EBD2061EE
:204BF300D2095EB50D5FB50D61FF045EB00E5EA0985EB0295EB10D5EA1225EB12A5EB20EA5
:204C13005EA2945EB2295EB30D5EA31C5EB32A5EA5225EB52A5EBD305E71F85E91CA5EBDF6
:204C3300315FB00E5FA0985FB0295FB10D5FA1225FB12A5FA51F5FB52A61FF045EBD215E6C
:204C5300BD2061D3045EB50A5FB50A61FF045EB0095EB10A5EB2095EB30A5FB0095FB10AF7
:204C730061A40E5EA08A5EB02E5EA1B15EB12D5EA2835EB22E5EA3AC5EB32D5EA5B15EB5EB
:204C93002D5EBD305EBD385EBD3C5E71985E91065EBD3D5FA08A5FB02E5FA1B15FB12D5F18
:204CB300A5AE5FB52D61FF045EBD355EBD315EBD3061D2095EBD2061D1095EB50D5FB50D0F
:204CD30061FF045EB00E5EA0985EB0295EB10D5EA1225EB12A5EB20E5EA2945EB2295EB302
:204CF3000D5EA31C5EB32A5EA5225EB52A5EBD305E71F85E91CA5EBD315FB00E5FA0985FB0
:204D1300B0295FB10D5FA1225FB12A5FA51F5FB52A61D3045EBD215EBD2061FF045EB50A9D
:204D33005FB50A61FF045EB0095EB10A5EB2095EB30A5FB0095FB10A61A40E5EA0225EB007
:204D53002E5EA16C5EB12D5EA21C5EB22E5EA3685EB32D5EA56C5EB52D5EBD305EBD385EBF
:204D7300BD3C5E71985E91065EBD3D5FA0225FB02E5FA16C5FB12D5FA5695FB52D61FF045A
:204D93005EBD355EBD315EBD3061D2095EBD2061D2095EB50D5FB50D61FF045EB00E5EA0A7
:204DB300985EB0295EB10D5EA1225EB12A5EB20E5EA2945EB2295EB30D5EA31C5EB32A5EDC
:204DD300A5225EB52A5EBD305E71F85E91CA5EBD315FB00E5FA0985FB0295FB10D5FA1227A
:204DF3005FB12A5FA51F5FB52A61D2045EBD215EBD2061FF045EB50A5FB50A61D3045EB072
:204E1300095EB10A5EB2095EB30A5FB0095FB10A61D10E5EA0665EB02E5EA1985EB12D5EE6
:204E3300A25F5EB22E5EA3945EB32D5EA5985EB52D5EBD305EBD385EBD3C5E71985E910621
:204E53005EBD3D5FA0665FB02E5FA1985FB12D5FA5965FB52D61D3045EBD355EBD315EBDA6
:204E73003061FD095EBD2061D2095EB50D5FB50D61D3045EB00E5EA0985EB0295EB10D5E35
:204E9300A1225EB12A5EB20E5EA2945EB2295EB30D5EA31C5EB32A5EA5225EB52A5EBD30F5
:204EB3005E71F85E91CA5EBD315FB00E5FA0985FB0295FB10D5FA1225FB12A5FA51F5FB577
:204ED3002A61FF045EBD215EBD2061D3045EB50A5FB50A61FE045EB0095EB10A5EB2095E3D
:204EF300B30A5FB0095FB10A61D10E5EA0E65EB02D5EA18A5EB12A5EA2E15EB22D5EA383ED
:204F13005EB32A5EA58A5EB52A5EBD305EBD385EBD3C5E71985E91065EBD3D5FA0E65FB0DC
:204F33002D5FA18A5FB12A5FA5865FB52A61D3045EBD355EBD315EBD3061D2095EBD2061AE
:204F5300D1095EB50A5FB50A61FF045EB00D5EA0985EB0295EB10A5EA1225EB12A5EB20D4D
:204F73005EA2945EB2295EB30A5EA31C5EB32A5EA5225EB52A5EBD305E71F85E91CA5EBD96
:204F9300315FB00D5FA0985FB0295FB10A5FA1225FB12A5FA51F5FB52A61D3045EBD215E39
:204FB300BD2061FF045EB50A5FB50A61FF045EB0095EB10A5EB2095EB30A5FB0095FB10A68
:204FD30061A40E5EA0225EB02E5EA16C5EB12D5EA21C5EB22E5EA3685EB32D5EA56C5EB525
:204FF3002D5EBD305EBD385EBD3C5E71985E91065EBD3D5FA0225FB02E5FA16C5FB12D5F62
:20501300A5695FB52D61FF045EBD355EBD315EBD3061D2095EBD2061D2095EB50D5FB50DEF
:2050330061FE045EB00E5EA0985EB0295EB10D5EA1225EB12A5EB20E5EA2945EB2295EB39F
:205053000D5EA31C5EB32A5EA5225EB52A5EBD305E71F85E91CA5EBD315FB00E5FA0985F4C
:20507300B0295FB10D5FA1225FB12A5FA51F5FB52A61D3045EBD215EBD2061FF045EB50A3A
:205093005FB50A61D3045EB0095EB10A5EB2095EB30A5FB0095FB10A61D10E5EA0CB5EB0FA
:2050B3002D5EA1665EB12A5EA2C65EB22D5EA35F5EB32A5EA5665EB52A5EBD305EBD385ED2
:2050D300BD3C5E71985E91065EBD3D5FA0CB5FB02D5FA1665FB12A5FA5625FB52A61FE0463
:2050F3005EBD355EBD315EBD3061D2095EBD2061D2095EB50A5FB50A61D3045EB00D5EA077
:20511300985EB0295EB10A5EA1225EB12A5EB20D5EA2945EB2295EB30A5EA31C5EB32A5E7F
:20513300A5225EB52A5EBD305E71F85E91CA5EBD315FB00D5FA0985FB0295FB10A5FA1221A
:205153005FB12A5FA51F5FB52A61FF045EBD215EBD2061D2045EB50A5FB50A61FF045EB0E2
:20517300095EB10A5EB2095EB30A5FB0095FB10A61D10E5EB02D5EB12A5EB22D5EB32A5E0A
:20519300B52A5EBD305EBD385EBD3C5E71985E91065EBD3D5FB02D5FB12A5FB52A61D30488
:2051B3005EBD2D5EBD3D5EBD355EBD3D5EBD395EBD3D5EBD3C61FF045EBD2C5EBD245EBD8C
:2051D3002061D00E5EB50A5FB50A61D3045EB00D5EB0295EB10A5EB12A5EB20D5EB2295E92
:2051F300B30A5EB32A5EB52A5EBD305E71F85E91CA5EBD315FB00D5FB0295FB10A5FB12AA8
:205213005FB52A61FF045EBD215EBD2061D3045EB50A5FB50A61FF045EB0095EB10A5EB24B
:20523300095EB30A5FB0095FB10A61A40E5EA0665EB02E5EA1985EB12D5EA25F5EB22E5E84
:20525300A3945EB32D5EA5985EB52D5EBD305EBD385EBD3C5E71985E91065EBD3D5FA066DD
:205273005FB02E5FA1985FB12D5FA5965FB52D61FF045EBD355EBD315EBD3061D2095EBD8C
:205293002061D1095EB50D5FB50D61FF045EB00E5EA0985EB0295EB10D5EA1225EB12A5E3E
:2052B300B20E5EA2945EB2295EB30D5EA31C5EB32A5EA5225EB52A5EBD305E71F85E91CAAB
:2052D3005EBD315FB00E5FA0985FB0295FB10D5FA1225FB12A5FA51F5FB52A61D3045EBD56
:2052F300215EBD2061FF045EB50A5FB50A61FF045EB0095EB10A5EB2095EB30A5FB0095F61
:20531300B10A61A40E5EA08A5EB02E5EA1B15EB12D5EA2835EB22E5EA3AC5EB32D5EA5B19C
:205333005EB52D5EBD305EBD385EBD3C5E71985E91065EBD3D5FA08A5FB02E5FA1B15FB1EA
:205353002D5FA5AE5FB52D61FF045EBD355EBD315EBD3061D2095EBD2061D2095EB50D5F9D
:20537300B50D61FF045EB00E5EA0985EB0295EB10D5EA1225EB12A5EB20E5EA2945EB229AA
:205393005EB30D5EA31C5EB32A5EA5225EB52A5EBD305E71F85E91CA5EBD315FB00E5FA0EF
:2053B300985FB0295FB10D5FA1225FB12A5FA51F5FB52A61D2045EBD215EBD2061FF045EC0
:2053D300B50A5FB50A61D3045EB0095EB10A5EB2095EB30A5FB0095FB10A61D10E5EA022AF
:2053F3005EB02E5EA16C5EB12D5EA21C5EB22E5EA3685EB32D5EA56C5EB52D5EBD305EBDA1
:20541300385EBD3C5E71985E91065EBD3D5FA0225FB02E5FA16C5FB12D5FA5695FB52D6120
:20543300D2045EBD355EBD315EBD3061FE095EBD2061D2095EB50D5FB50D61D3045EB00E28
:205453005EA0985EB0295EB10D5EA1225EB12A5EB20E5EA2945EB2295EB30D5EA31C5EB3BF
:205473002A5EA5225EB52A5EBD305E71F85E91CA5EBD315FB00E5FA0985FB0295FB10D5F0E
:20549300A1225FB12A5FA51F5FB52A61FF045EBD215EBD2061D2045EB50A5FB50A61FF04EA
:2054B3005EB0095EB10A5EB2095EB30A5FB0095FB10A61D10E5EA0665EB02E5EA1985EB1BD
:2054D3002D5EA25F5EB22E5EA3945EB32D5EA5985EB52D5EBD305EBD385EBD3C5E71985E87
:2054F30091065EBD3D5FA0665FB02E5FA1985FB12D5FA5965FB52D61D3045EBD355EBD3184
:205513005EBD3061D1095EBD2061D2095EB50D5FB50D61FF045EB00E5EA0985EB0295EB1DE
:205533000D5EA1225EB12A5EB20E5EA2945EB2295EB30D5EA31C5EB32A5EA5225EB52A5ED0
:20555300BD305E71F85E91CA5EBD315FB00E5FA0985FB0295FB10D5FA1225FB12A5FA51FF7
:205573005FB52A61FF045EBD215EBD2061D3045EB50A5FB50A61FF045EB0095EB10A5EB2E8
:20559300095EB30A5FB0095FB10A61A40E5EA0E65EB02D5EA18A5EB12A5EA2E15EB22D5E32
:2055B300A3835EB32A5EA58A5EB52A5EBD305EBD385EBD3C5E71985E91065EBD3D5FA0E61F
:2055D3005FB02D5FA18A5FB12A5FA5865FB52A61FF045EBD355EBD315EBD3061D2095EBD4E
:2055F3002061D1095EB50A5FB50A61FF045EB00D5EA0985EB0295EB10A5EA1225EB12A5EE5
:20561300B20D5EA2945EB2295EB30A5EA31C5EB32A5EA5225EB52A5EBD305E71F85E91CA4B
:205633005EBD315FB00D5FA0985FB0295FB10A5FA1225FB12A5FA51F5FB52A61D3045EBDF6
:20565300215EBD2061FF045EB50A5FB50A61D3045EB0095EB10A5EB2095EB30A5FB0095F29
:20567300B10A61D00E5EA0225EB02E5EA16C5EB12D5EA21C5EB22E5EA3685EB32D5EA56CAA
:205693005EB52D5EBD305EBD385EBD3C5E71985E91065EBD3D5FA0225FB02E5FA16C5FB134
:2056B3002D5FA5695FB52D61FF045EBD355EBD315EBD3061D2095EBD2061D2095EB50D5F7F
:2056D300B50D61D3045EB00E5EA0985EB0295EB10D5EA1225EB12A5EB20E5EA2945EB22973
:2056F3005EB30D5EA31C5EB32A5EA5225EB52A5EBD305E71F85E91CA5EBD315FB00E5FA08C
:20571300985FB0295FB10D5FA1225FB12A5FA51F5FB52A61FE045EBD215EBD2061FF045E30
:20573300B50A5FB50A61D3045EB0095EB10A5EB2095EB30A5FB0095FB10A61D10E5EA0CBA2
:205753005EB02D5EA1665EB12A5EA2C65EB22D5EA35F5EB32A5EA5665EB52A5EBD305EBDB3
:20577300385EBD3C5E71985E91065EBD3D5FA0CB5FB02D5FA1665FB12A5FA5625FB52A6128
:20579300D3045EBD355EBD315EBD3061FD095EBD2061D2095EB50A5FB50A61D3045EB00DCC
:2057B3005EA0985EB0295EB10A5EA1225EB12A5EB20D5EA2945EB2295EB30A5EA31C5EB363
:2057D3002A5EA5225EB52A5EBD305E71F85E91CA5EBD315FB00D5FA0985FB0295FB10A5FAF
:2057F300A1225FB12A5FA51F5FB52A61FF045EBD215EBD2061D3045EB50A5FB50A61FE0487
:205813005EB0095EB10A5EB2095EB30A5FB0095FB10A61D10E5EB02D5EB12A5EB22D5EB3DD
:205833002A5EB52A5EBD305EBD385EBD3C5E71985E91065EBD3D5FB02D5FB12A5FB52A6130
:20585300D3045EBD2D5EBD3D5EBD355EBD3D5EBD395EBD3D5EBD3C61FF045EBD2C5EBD2429
:205873005EBD2061A40E5EB50A5FB50A61FF045EB00D5EB0295EB10A5EB12A5EB20D5EB257
:20589300295EB30A5EB32A5EB52A5EBD305E71F85E91CA5EBD315FB00D5FB0295FB10A5F55
:2058B300B12A5FB52A61D3045EBD215EBD2061FF045EB50A5FB50A61FF045EB0095EB10ADA
:2058D3005EB2095EB30A5FB0095FB10A61A40E5EA0665EB02E5EA1985EB12D5EA25F5EB25A
:2058F3002E5EA3945EB32D5EA5985EB52D5EBD305EBD385EBD3C5E71985E91065EBD3D5FB1
:20591300A0665FB02E5FA1985FB12D5FA5965FB52D61FF045EBD355EBD315EBD3061D209FA
:205933005EBD2061D2095EB50D5FB50D61FE045EB00E5EA0985EB0295EB10D5EA1225EB104
:205953002A5EB20E5EA2945EB2295EB30D5EA31C5EB32A5EA5225EB52A5EBD305E71F85ED7
:2059730091CA5EBD315FB00E5FA0985FB0295FB10D5FA1225FB12A5FA51F5FB52A61D3046F
:205993005EBD215EBD2061FF045EB50A5FB50A61D3045EB0095EB10A5EB2095EB30A5FB033
:2059B300095FB10A61D10E5EA08A5EB02E5EA1B15EB12D5EA2835EB22E5EA3AC5EB32D5EB7
:2059D300A5B15EB52D5EBD305EBD385EBD3C5E71985E91065EBD3D5FA08A5FB02E5FA1B1FE
:2059F3005FB12D5FA5AE5FB52D61FE045EBD355EBD315EBD3061D2095EBD2061D2095EB554
:205A13000D5FB50D61D3045EB00E5EA0985EB0295EB10D5EA1225EB12A5EB20E5EA2945E9E
:205A3300B2295EB30D5EA31C5EB32A5EA5225EB52A5EBD305E71F85E91CA5EBD315FB00E6C
:205A53005FA0985FB0295FB10D5FA1225FB12A5FA51F5FB52A61FF045EBD215EBD2061D27C
:205A7300045EB50A5FB50A61FF045EB0095EB10A5EB2095EB30A5FB0095FB10A61D10E5E3C
:205A9300A0225EB02E5EA16C5EB12D5EA21C5EB22E5EA3685EB32D5EA56C5EB52D5EBD3053
:205AB3005EBD385EBD3C5E71985E91065EBD3D5FA0225FB02E5FA16C5FB12D5FA5695FB5ED
:205AD3002D61D3045EBD355EBD315EBD3061D1095EBD2061FE095EB50D5FB50D61D3045EB2
:205AF300B00E5EA0985EB0295EB10D5EA1225EB12A5EB20E5EA2945EB2295EB30D5EA31C6C
:205B13005EB32A5EA5225EB52A5EBD305E71F85E91CA5EBD315FB00E5FA0985FB0295FB1C2
:205B33000D5FA1225FB12A5FA51F5FB52A61FF045EBD215EBD2061D3045EB50A5FB50A61D9
:205B5300FF045EB0095EB10A5EB2095EB30A5FB0095FB10A61A40E5EA0665EB02E5EA1984F
:205B73005EB12D5EA25F5EB22E5EA3945EB32D5EA5985EB52D5EBD305EBD385EBD3C5E71C7
:205B9300985E91065EBD3D5FA0665FB02E5FA1985FB12D5FA5965FB52D61FF045EBD355EA9
:205BB300BD315EBD3061D2095EBD2061D1095EB50D5FB50D61FF045EB00E5EA0985EB02959
:205BD3005EB10D5EA1225EB12A5EB20E5EA2945EB2295EB30D5EA31C5EB32A5EA5225EB5A3
:205BF3002A5EBD305E71F85E91CA5EBD315FB00E5FA0985FB0295FB10D5FA1225FB12A5F8D
:205C1300A51F5FB52A61D3045EBD215EBD2061FF045EB50A5FB50A61FF045EB0095EB10A8D
:205C33005EB2095EB30A5FB0095FB10A61A40E5EA0E65EB02D5EA18A5EB12A5EA2E15EB206
:205C53002D5EA3835EB32A5EA58A5EB52A5EBD305EBD385EBD3C5E71985E91065EBD3D5F73
:205C7300A0E65FB02D5FA18A5FB12A5FA5865FB52A61FF045EBD355EBD315EBD3061D2093C
:205C93005EBD2061D2095EB50A5FB50A61FF045EB00D5EA0985EB0295EB10A5EA1225EB1AA
:205CB3002A5EB20D5EA2945EB2295EB30A5EA31C5EB32A5EA5225EB52A5EBD305E71F85E78
:205CD30091CA5EBD315FB00D5FA0985FB0295FB10A5FA1225FB12A5FA51F5FB52A61D20411
:205CF3005EBD215EBD2061FF045EB50A5FB50A61D3045EB0095EB10A5EB2095EB30A5FB0D0
:205D1300095FB10A61D10E5EA0225EB02E5EA16C5EB12D5EA21C5EB22E5EA3685EB32D5EAB
:205D3300A56C5EB52D5EBD305EBD385EBD3C5E71985E91065EBD3D5FA0225FB02E5FA16C8C
:205D53005FB12D5FA5695FB52D61D2045EBD355EBD315EBD3061FE095EBD2061D2095EB535
:205D73000D5FB50D61D3045EB00E5EA0985EB0295EB10D5EA1225EB12A5EB20E5EA2945E3B
:205D9300B2295EB30D5EA31C5EB32A5EA5225EB52A5EBD305E71F85E91CA5EBD315FB00E09
:205DB3005FA0985FB0295FB10D5FA1225FB12A5FA51F5FB52A61FF045EBD215EBD2061D219
:205DD300045EB50A5FB50A61FF045EB0095EB10A5EB2095EB30A5FB0095FB10A61D10E5ED9
:205DF300A0CB5EB02D5EA1665EB12A5EA2C65EB22D5EA35F5EB32A5EA5665EB52A5EBD30BD
:205E13005EBD385EBD3C5E71985E91065EBD3D5FA0CB5FB02D5FA1665FB12A5FA5625FB5F1
:205E33002A61D3045EBD355EBD315EBD3061D1095EBD2061D2095EB10A5EB30A5EB50A5FA4
:205E5300B10A5FB50A61FF045EB00D5EA0985EB0295EA1225EB12A5EB20D5EA2945EB229C6
:205E73005EA31C5EB32A5EA5225EB52A5EBD305E71F85E91CA5EBD315FB00D5FA0985FB07C
:205E9300295FA1225FB12A5FA51F5FB52A61FF045EBD215EBD2061D3045EB50A5FB50A615A
:205EB300FF045EB0095EB10A5EB2095EB30A5FB0095FB10A61A40E5EB02D5EB12A5EB22D72
:205ED3005EB32A5EB52A5EBD305EBD385EBD3C5E71985E91065EBD3D5FB02D5FB12A5FB504
:205EF3002A61FF045EBD355EBD3D5EBD395EBD3D5EBD3C61D3045EBD345EBD3061FF045EC2
:205F1300BD2061D1095EB50A5FB50A61FF045EB00D5EB0295EB10A5EB12A5EB20D5EB229BD
:205F33005EB30A5EB32A5EB52A5EBD305E71F85E91CA5EBD315FB00D5FB0295FB10A5FB126
:205F53002A5FB52A61D3045EBD215EBD2061FF045EB50A5FB50A61D3045EB0095EB10A5EB2
:205F7300B2095EB30A5FB0095FB10A61D00E5EA0665EB02E5EA1985EB12D5EA25F5EB22EB7
:205F93005EA3945EB32D5EA5985EB52D5EBD305EBD385EBD3C5E71985E91065EBD3D5FA098
:205FB300665FB02E5FA1985FB12D5FA5965FB52D61FF045EBD355EBD315EBD3061D2095E96
:205FD300BD2061D2095EB50D5FB50D61D3045EB00E5EA0985EB0295EB10D5EA1225EB12ABD
:205FF3005EB20E5EA2945EB2295EB30D5EA31C5EB32A5EA5225EB52A5EBD305E71F85E91CA
:20601300CA5EBD315FB00E5FA0985FB0295FB10D5FA1225FB12A5FA51F5FB52A61FE045ED0
:20603300BD215EBD2061FF045EB50A5FB50A61D3045EB0095EB10A5EB2095EB30A5FB009E1
:206053005FB10A61D10E5EA08A5EB02E5EA1B15EB12D5EA2835EB22E5EA3AC5EB32D5EA574
:20607300B15EB52D5EBD305EBD385EBD3C5E71985E91065EBD3D5FA08A5FB02E5FA1B15F9D
:20609300B12D5FA5AE5FB52D61D3045EBD355EBD315EBD3061FD095EBD2061D2095EB50DFF
:2060B3005FB50D61D3045EB00E5EA0985EB0295EB10D5EA1225EB12A5EB20E5EA2945EB253
:2060D300295EB30D5EA31C5EB32A5EA5225EB52A5EBD305E71F85E91CA5EBD315FB00E5F19
:2060F300A0985FB0295FB10D5FA1225FB12A5FA51F5FB52A61FF045EBD215EBD2061D30430
:206113005EB50A5FB50A61FE045EB0095EB10A5EB2095EB30A5FB0095FB10A61D10E5EA0FA
:20613300225EB02E5EA16C5EB12D5EA21C5EB22E5EA3685EB32D5EA56C5EB52D5EBD305EEE
:20615300BD385EBD3C5E71985E91065EBD3D5FA0225FB02E5FA16C5FB12D5FA5695FB52D77
:2061730061D3045EBD355EBD315EBD3061D2095EBD2061D1095EB50D5FB50D61FF045EB088
:206193000E5EA0985EB0295EB10D5EA1225EB12A5EB20E5EA2945EB2295EB30D5EA31C5E17
:2061B300B32A5EA5225EB52A5EBD305E71F85E91CA5EBD315FB00E5FA0985FB0295FB10D6D
:2061D3005FA1225FB12A5FA51F5FB52A61D3045EBD215EBD2061FF045EB50A5FB50A61FF41
:2061F300045EB0095EB10A5EB2095EB30A5FB0095FB10A61A40E5EA0225EB02E5EA1985E8E
:20621300B12D5EA21C5EB22E5EA3945EB32D5EB52A5EBD305EBD385EBD3C5EC8215EBD3E8E
:206233005FA0225FB02E5FA1985FB12D5FB52A61FF045EBD2E5EBD3E5EBD365EBD3E5EBD0F
:206253003A5EBD3E5EBD3C61D3045EBD345EBD3061FE095EBD2061D3045EB50A5FB50A61F8
:20627300FE045EB00E5EB10D5EB20E5EB30D5EBD305EBD315FB00E5FB10D61D3045EBD2150
:206293005EBD2061A3185EBD305EBD3161FE045EBD215EBD206177185EB02E5EB12D5EB2AB
:2062B3002E5EB32D5EB52A5EBD305EBD385EBD3C5EC8115EBD3E5FB02E5FB12D5FB52A6184
:2062D300FF045EBD365EBD325EBD3061D1095EBD2061D10E5EC6285E30325E50445E70F845
:2062F3005EC62E5E33115E937F5EB60D5EBD305E34325E54495E74F85E94FF5EF4005EBDD4
:20631300385EBD3C5E71985E91065EBD3D61D3045EBD3C61D1095EBD3461D10E5EB20E5E52
:20633300C2385E62815E827A5EE2025E25C35E857E5EA21F5EB2325E29215E49145E6971D0
:206353005E89AE5EC43A5E2C315E6CF05E8CFC5EEC015E4C0B5EA4225EB4325EBD245EC613
:206373003E5EA6435EB60A5EBD345EBD3C5EBD385EBD3C5FC2185FA25B5F450D5FA2295F48
:20639300B2325FA3655F4B0D5FA3195FB32E61FF045EA2225EA4255FA22C5FA31C61D3045D
:2063B3005EA2255EA4295FA22F5FA31F61FF045EA2225EA4255EBD345FA22C5FA31C61D2AF
:2063D300045EA21F5EA4225FA2295FA31961FF045EA2225EA4255FA22C5FA31C61D3045E90
:2063F300B2125EA2255EA2695EB2325EB30D5EC3385E68815E887A5EE8025E2BC35E8B7EDD
:206413005E4B105EA31C5EB3325EB4125EA4295EA46D5EB4325EBD245EC61E5EA6B15EB604
:20643300095EBD345EBD3C5EBD385EBD3C5FB2125FA22F5FA2745FB2325FB30E5FA31F5F45
:20645300A3625FB32E61FF045EA2665EA31F5EA4695FA2705FA35F61FF045EA2625EA322D4
:206473005EA4665FA26D5FA35B61D3045EA2665EA31F5EA4695EBD345FA2705FA35F61FF2C
:20649300045EA2695EA31C5EA46D5FA2745FA36261D2045EA2665EA31F5EA4695FA2705F1F
:2064B300A35F61FF045EB2125EA2625EA2865EB2325EB3125EA3225EA3665EB3325EB41203
:2064D3005EA4665EA48A5EB4325EBD245EC63E5E30005E50075E70D85EC6385E33005E9309
:2064F300F05EA6575EBD345EBD305FB2125FA26D5FA2925FB2325FB30E5FA35B5FA37F5FE0
:20651300B32E61D3045EA28A5EA3625EA48D5EBD205FA2955FA38361FF045EA28D5EA35F2C
:206533005EA4925FA29A5FA38661FF045EA28A5EA3625EA48D5FA2955FA38361D3045EA25E
:20655300865EA3665EA48A5FA2925FA37F61FF045EA28A5EA3625EA48D5EB50A5FA2955FA9
:20657300A3835FB50A61D2045EB00E5EB02E5EB10D5EB12D5EB2125EA28D5EA2255EB232C7
:206593005EB3125EA35F5EA3835EB3325EB4125EA4925EA4295EB4325EB52A5EBD305EC8C9
:2065B300215EBD325FB00E5FB02E5FB10D5FB12D5FB2125FA29A5FA22F5FB2325FB30E5FF6
:2065D300A3865FA31F5FB32E5FB52A61FF045EA2225EA3865EA4255EBD225EBD205FA22C07
:2065F3005FA31C61D3045EA21F5EA38A5EA4225FA2295FA31961FF045EA2225EA3865EA410
:20661300255FA22C5FA31C61D3045EA2255EA3835EA4295FA22F5FA31F61FF045EA2225EB6
:20663300A3865EA4255EB50A5FA22C5FA31C5FB50A61FF045EB00E5EB02A5EB10D5EB12965
:206653005EA21F5EB3125EA38A5EA3225EB3325EA4225EB52A5E71F85E91CA5EBD215FB0C8
:206673000E5FB02A5FB10D5FB1295FA2295FA3195FB52A61D2045EA2225EA31F5EA4255EE9
:20669300BD205FA22C5FA31C61FF045EA2255EA31C5EA4295FA22F5FA31F61D3045EB00A4D
:2066B3005EB1095EA2225EA31F5EA4255FB00A5FB1095FA22C5FA31C61FF045EA21F5EA345
:2066D300225EA4225FA2295FA31961D3045EA2225EA31F5EA4255EB50A5FA22C5FA31C5FB4
:2066F300B50A61FF045EB02A5EB1295EA2255EA31C5EA4295EB52A5EBD305E341E5E540598
:206713005E74F55E94D75EF4025EBD385EBD3C5EBD3D5FB02A5FB1295FA22F5FA31F5FB5A9
:206733002A61D2045EA2225EA31F5EA4255EBD355EBD315EBD305FA22C5FA31C61FF045E88
:20675300A21F5EA3225EA4225FA2295FA31961FF045EB00A5EB1095EA2225EA31F5EA425DC
:206773005EBD205FB00A5FB1095FA22C5FA31C61D3045EA2255EA31C5EA4295FA22F5FA377
:206793001F61FF045EA2225EA31F5EA4255EB50A5FA22C5FA31C5FB50A61D3045EB02E5EA2
:2067B300B12D5EB2125EA21F5EA2625EB2325EA3225EB4125EA4225EA4665EB4325EB52AAF
:2067D3005EBD305EBD315FB02E5FB12D5FB2125FA2295FA26D5FB2325FB30E5FA3195FA35A
